8=FIX.4.2|9=0087|35=A|34=0|49=EXCHANGE_A|56=ISTY_TRADING_SYTEM|52=20131110-16:46:25|98=0|108=30|141=Y|10=183|
8=FIX.4.4|9=0142|35=V|34=1|49=ISTY_TRADING_SYTEM|56=EXCHANGE_A|52=20131110-16:46:26|262=1|55=INTEL|10=096|
8=FIX.4.2|9=315|35=S|34=1|49=EXCHANGE_A|56=ISTY_TRADING_SYTEM|52=20131110-16:46:27|117=123|131=1|55=INTEL|133=105|135=10000|132=100|134=10000|60=20131110-16:46:27|64=20131113|10=088|
8=FIX.4.2|9=315|35=S|34=2|49=EXCHANGE_B|56=ISTY_TRADING_SYTEM|52=20131110-16:46:28|117=123|131=1|55=INTEL|133=108|135=10000|132=102|134=10000|60=20131110-16:46:28|64=20131113|10=088|
8=FIX.4.2|9=315|35=S|34=3|49=EXCHANGE_A|56=ISTY_TRADING_SYTEM|52=20131110-16:46:29|117=123|131=1|55=INTEL|133=104|135=10000|132=101|134=10000|60=20131110-16:46:29|64=20131113|10=088|
8=FIX.4.2|9=315|35=S|34=4|49=EXCHANGE_A|56=ISTY_TRADING_SYTEM|52=20131110-16:46:30|117=123|131=1|55=INTEL|133=101|135=10000|132=98|134=10000|60=20131110-16:46:30|64=20131113|10=088|
8=FIX.4.2|9=315|35=S|34=5|49=EXCHANGE_B|56=ISTY_TRADING_SYTEM|52=20131110-16:46:31|117=123|131=1|55=INTEL|133=98|135=10000|132=94|134=10000|60=20131110-16:46:31|64=20131113|10=088|
8=FIX.4.2|9=315|35=S|34=6|49=EXCHANGE_A|56=ISTY_TRADING_SYTEM|52=20131110-16:46:32|117=123|131=1|55=INTEL|133=100|135=10000|132=92|134=10000|60=20131110-16:46:32|64=20131113|10=088|
8=FIX.4.2|9=315|35=S|34=7|49=EXCHANGE_A|56=ISTY_TRADING_SYTEM|52=20131110-16:46:33|117=123|131=1|55=INTEL|133=103|135=10000|132=93|134=10000|60=20131110-16:46:33|64=20131113|10=088|
8=FIX.4.2|9=315|35=S|34=8|49=EXCHANGE_A|56=ISTY_TRADING_SYTEM|52=20131110-16:46:34|117=123|131=1|55=INTEL|133=104|135=10000|132=95|134=10000|60=20131110-16:46:34|64=20131113|10=088|
8=FIX.4.2|9=315|35=S|34=9|49=EXCHANGE_A|56=ISTY_TRADING_SYTEM|52=20131110-16:46:35|117=123|131=1|55=INTEL|133=106|135=10000|132=92|134=10000|60=20131110-16:46:35|64=20131113|10=088|
8=FIX.4.2|9=315|35=S|34=10|49=EXCHANGE_A|56=ISTY_TRADING_SYTEM|52=20131110-16:46:36|117=123|131=1|55=INTEL|133=104|135=10000|132=90|134=10000|60=20131110-16:46:36|64=20131113|10=088|
8=FIX.4.2|9=315|35=S|34=11|49=EXCHANGE_B|56=ISTY_TRADING_SYTEM|52=20131110-16:46:37|117=123|131=1|55=INTEL|133=105|135=10000|132=90|134=10000|60=20131110-16:46:37|64=20131113|10=088|
8=FIX.4.2|9=315|35=S|34=12|49=EXCHANGE_B|56=ISTY_TRADING_SYTEM|52=20131110-16:46:38|117=123|131=1|55=INTEL|133=104|135=10000|132=90|134=10000|60=20131110-16:46:38|64=20131113|10=088|
8=FIX.4.2|9=315|35=S|34=13|49=EXCHANGE_A|56=ISTY_TRADING_SYTEM|52=20131110-16:46:39|117=123|131=1|55=INTEL|133=100|135=10000|132=94|134=10000|60=20131110-16:46:39|64=20131113|10=088|
8=FIX.4.2|9=315|35=S|34=14|49=EXCHANGE_A|56=ISTY_TRADING_SYTEM|52=20131110-16:46:40|117=123|131=1|55=INTEL|133=96|135=10000|132=91|134=10000|60=20131110-16:46:40|64=20131113|10=088|
8=FIX.4.2|9=315|35=S|34=15|49=EXCHANGE_A|56=ISTY_TRADING_SYTEM|52=20131110-16:46:41|117=123|131=1|55=INTEL|133=98|135=10000|132=94|134=10000|60=20131110-16:46:41|64=20131113|10=088|
8=FIX.4.2|9=315|35=S|34=16|49=EXCHANGE_A|56=ISTY_TRADING_SYTEM|52=20131110-16:46:42|117=123|131=1|55=INTEL|133=95|135=10000|132=93|134=10000|60=20131110-16:46:42|64=20131113|10=088|
8=FIX.4.2|9=315|35=S|34=17|49=EXCHANGE_A|56=ISTY_TRADING_SYTEM|52=20131110-16:46:43|117=123|131=1|55=INTEL|133=96|135=10000|132=96|134=10000|60=20131110-16:46:43|64=20131113|10=088|
8=FIX.4.2|9=315|35=S|34=18|49=EXCHANGE_A|56=ISTY_TRADING_SYTEM|52=20131110-16:46:44|117=123|131=1|55=INTEL|133=95|135=10000|132=92|134=10000|60=20131110-16:46:44|64=20131113|10=088|
8=FIX.4.2|9=315|35=S|34=19|49=EXCHANGE_A|56=ISTY_TRADING_SYTEM|52=20131110-16:46:45|117=123|131=1|55=INTEL|133=99|135=10000|132=93|134=10000|60=20131110-16:46:45|64=20131113|10=088|
8=FIX.4.2|9=315|35=S|34=20|49=EXCHANGE_B|56=ISTY_TRADING_SYTEM|52=20131110-16:46:46|117=123|131=1|55=INTEL|133=95|135=10000|132=92|134=10000|60=20131110-16:46:46|64=20131113|10=088|
8=FIX.4.2|9=315|35=S|34=21|49=EXCHANGE_A|56=ISTY_TRADING_SYTEM|52=20131110-16:46:47|117=123|131=1|55=INTEL|133=96|135=10000|132=92|134=10000|60=20131110-16:46:47|64=20131113|10=088|
8=FIX.4.2|9=315|35=S|34=22|49=EXCHANGE_A|56=ISTY_TRADING_SYTEM|52=20131110-16:46:48|117=123|131=1|55=INTEL|133=94|135=10000|132=94|134=10000|60=20131110-16:46:48|64=20131113|10=088|
8=FIX.4.2|9=315|35=S|34=23|49=EXCHANGE_A|56=ISTY_TRADING_SYTEM|52=20131110-16:46:49|117=123|131=1|55=INTEL|133=95|135=10000|132=95|134=10000|60=20131110-16:46:49|64=20131113|10=088|
8=FIX.4.2|9=315|35=S|34=24|49=EXCHANGE_B|56=ISTY_TRADING_SYTEM|52=20131110-16:46:50|117=123|131=1|55=INTEL|133=95|135=10000|132=95|134=10000|60=20131110-16:46:50|64=20131113|10=088|
8=FIX.4.2|9=315|35=S|34=25|49=EXCHANGE_A|56=ISTY_TRADING_SYTEM|52=20131110-16:46:51|117=123|131=1|55=INTEL|133=98|135=10000|132=98|134=10000|60=20131110-16:46:51|64=20131113|10=088|
8=FIX.4.2|9=315|35=S|34=26|49=EXCHANGE_A|56=ISTY_TRADING_SYTEM|52=20131110-16:46:52|117=123|131=1|55=INTEL|133=98|135=10000|132=97|134=10000|60=20131110-16:46:52|64=20131113|10=088|
8=FIX.4.2|9=315|35=S|34=27|49=EXCHANGE_A|56=ISTY_TRADING_SYTEM|52=20131110-16:46:53|117=123|131=1|55=INTEL|133=98|135=10000|132=98|134=10000|60=20131110-16:46:53|64=20131113|10=088|
8=FIX.4.2|9=315|35=S|34=28|49=EXCHANGE_A|56=ISTY_TRADING_SYTEM|52=20131110-16:46:54|117=123|131=1|55=INTEL|133=95|135=10000|132=94|134=10000|60=20131110-16:46:54|64=20131113|10=088|
8=FIX.4.2|9=42|35=0|49=ISTY_TRADING_SYSTEM|56=ECHANGE_A|34=12|52=20131110-16:46:54|10=185|
8=FIX.4.2|9=42|35=0|49=ECHANGE_A|56=ISTY_TRADING_SYSTEM|34=12|52=20131110-16:46:55|10=185|
8=FIX.4.2|9=315|35=S|34=30|49=EXCHANGE_A|56=ISTY_TRADING_SYTEM|52=20131110-16:46:57|117=123|131=1|55=INTEL|133=96|135=10000|132=93|134=10000|60=20131110-16:46:57|64=20131113|10=088|
8=FIX.4.2|9=315|35=S|34=31|49=EXCHANGE_A|56=ISTY_TRADING_SYTEM|52=20131110-16:46:58|117=123|131=1|55=INTEL|133=100|135=10000|132=91|134=10000|60=20131110-16:46:58|64=20131113|10=088|
8=FIX.4.2|9=315|35=S|34=32|49=EXCHANGE_A|56=ISTY_TRADING_SYTEM|52=20131110-16:46:59|117=123|131=1|55=INTEL|133=104|135=10000|132=91|134=10000|60=20131110-16:46:59|64=20131113|10=088|
8=FIX.4.2|9=315|35=S|34=33|49=EXCHANGE_A|56=ISTY_TRADING_SYTEM|52=20131110-16:47:00|117=123|131=1|55=INTEL|133=107|135=10000|132=88|134=10000|60=20131110-16:47:00|64=20131113|10=088|
8=FIX.4.2|9=315|35=S|34=34|49=EXCHANGE_B|56=ISTY_TRADING_SYTEM|52=20131110-16:47:01|117=123|131=1|55=INTEL|133=111|135=10000|132=92|134=10000|60=20131110-16:47:01|64=20131113|10=088|
8=FIX.4.2|9=315|35=S|34=35|49=EXCHANGE_B|56=ISTY_TRADING_SYTEM|52=20131110-16:47:02|117=123|131=1|55=INTEL|133=113|135=10000|132=95|134=10000|60=20131110-16:47:02|64=20131113|10=088|
8=FIX.4.2|9=315|35=S|34=36|49=EXCHANGE_B|56=ISTY_TRADING_SYTEM|52=20131110-16:47:03|117=123|131=1|55=INTEL|133=111|135=10000|132=98|134=10000|60=20131110-16:47:03|64=20131113|10=088|
8=FIX.4.2|9=315|35=S|34=37|49=EXCHANGE_A|56=ISTY_TRADING_SYTEM|52=20131110-16:47:04|117=123|131=1|55=INTEL|133=115|135=10000|132=99|134=10000|60=20131110-16:47:04|64=20131113|10=088|
8=FIX.4.2|9=315|35=S|34=38|49=EXCHANGE_A|56=ISTY_TRADING_SYTEM|52=20131110-16:47:05|117=123|131=1|55=INTEL|133=118|135=10000|132=103|134=10000|60=20131110-16:47:05|64=20131113|10=088|
8=FIX.4.2|9=315|35=S|34=39|49=EXCHANGE_A|56=ISTY_TRADING_SYTEM|52=20131110-16:47:06|117=123|131=1|55=INTEL|133=115|135=10000|132=107|134=10000|60=20131110-16:47:06|64=20131113|10=088|
8=FIX.4.2|9=315|35=S|34=40|49=EXCHANGE_B|56=ISTY_TRADING_SYTEM|52=20131110-16:47:07|117=123|131=1|55=INTEL|133=118|135=10000|132=103|134=10000|60=20131110-16:47:07|64=20131113|10=088|
8=FIX.4.2|9=315|35=S|34=41|49=EXCHANGE_A|56=ISTY_TRADING_SYTEM|52=20131110-16:47:08|117=123|131=1|55=INTEL|133=115|135=10000|132=101|134=10000|60=20131110-16:47:08|64=20131113|10=088|
8=FIX.4.2|9=315|35=S|34=42|49=EXCHANGE_B|56=ISTY_TRADING_SYTEM|52=20131110-16:47:09|117=123|131=1|55=INTEL|133=117|135=10000|132=99|134=10000|60=20131110-16:47:09|64=20131113|10=088|
8=FIX.4.2|9=315|35=S|34=43|49=EXCHANGE_A|56=ISTY_TRADING_SYTEM|52=20131110-16:47:10|117=123|131=1|55=INTEL|133=113|135=10000|132=103|134=10000|60=20131110-16:47:10|64=20131113|10=088|
8=FIX.4.2|9=315|35=S|34=44|49=EXCHANGE_A|56=ISTY_TRADING_SYTEM|52=20131110-16:47:11|117=123|131=1|55=INTEL|133=117|135=10000|132=107|134=10000|60=20131110-16:47:11|64=20131113|10=088|
8=FIX.4.2|9=315|35=S|34=45|49=EXCHANGE_A|56=ISTY_TRADING_SYTEM|52=20131110-16:47:12|117=123|131=1|55=INTEL|133=121|135=10000|132=103|134=10000|60=20131110-16:47:12|64=20131113|10=088|
8=FIX.4.2|9=315|35=S|34=46|49=EXCHANGE_A|56=ISTY_TRADING_SYTEM|52=20131110-16:47:13|117=123|131=1|55=INTEL|133=123|135=10000|132=102|134=10000|60=20131110-16:47:13|64=20131113|10=088|
8=FIX.4.2|9=315|35=S|34=47|49=EXCHANGE_A|56=ISTY_TRADING_SYTEM|52=20131110-16:47:14|117=123|131=1|55=INTEL|133=126|135=10000|132=100|134=10000|60=20131110-16:47:14|64=20131113|10=088|
8=FIX.4.2|9=315|35=S|34=48|49=EXCHANGE_A|56=ISTY_TRADING_SYTEM|52=20131110-16:47:15|117=123|131=1|55=INTEL|133=127|135=10000|132=96|134=10000|60=20131110-16:47:15|64=20131113|10=088|
8=FIX.4.2|9=315|35=S|34=49|49=EXCHANGE_A|56=ISTY_TRADING_SYTEM|52=20131110-16:47:16|117=123|131=1|55=INTEL|133=130|135=10000|132=100|134=10000|60=20131110-16:47:16|64=20131113|10=088|
8=FIX.4.2|9=315|35=S|34=50|49=EXCHANGE_B|56=ISTY_TRADING_SYTEM|52=20131110-16:47:17|117=123|131=1|55=INTEL|133=131|135=10000|132=97|134=10000|60=20131110-16:47:17|64=20131113|10=088|
8=FIX.4.2|9=315|35=S|34=51|49=EXCHANGE_A|56=ISTY_TRADING_SYTEM|52=20131110-16:47:18|117=123|131=1|55=INTEL|133=132|135=10000|132=97|134=10000|60=20131110-16:47:18|64=20131113|10=088|
8=FIX.4.2|9=315|35=S|34=52|49=EXCHANGE_A|56=ISTY_TRADING_SYTEM|52=20131110-16:47:19|117=123|131=1|55=INTEL|133=134|135=10000|132=100|134=10000|60=20131110-16:47:19|64=20131113|10=088|
8=FIX.4.2|9=315|35=S|34=53|49=EXCHANGE_A|56=ISTY_TRADING_SYTEM|52=20131110-16:47:20|117=123|131=1|55=INTEL|133=131|135=10000|132=96|134=10000|60=20131110-16:47:20|64=20131113|10=088|
8=FIX.4.2|9=315|35=S|34=54|49=EXCHANGE_A|56=ISTY_TRADING_SYTEM|52=20131110-16:47:21|117=123|131=1|55=INTEL|133=132|135=10000|132=93|134=10000|60=20131110-16:47:21|64=20131113|10=088|
8=FIX.4.2|9=315|35=S|34=55|49=EXCHANGE_A|56=ISTY_TRADING_SYTEM|52=20131110-16:47:22|117=123|131=1|55=INTEL|133=135|135=10000|132=94|134=10000|60=20131110-16:47:22|64=20131113|10=088|
8=FIX.4.2|9=315|35=S|34=56|49=EXCHANGE_A|56=ISTY_TRADING_SYTEM|52=20131110-16:47:23|117=123|131=1|55=INTEL|133=132|135=10000|132=93|134=10000|60=20131110-16:47:23|64=20131113|10=088|
8=FIX.4.2|9=315|35=S|34=57|49=EXCHANGE_A|56=ISTY_TRADING_SYTEM|52=20131110-16:47:24|117=123|131=1|55=INTEL|133=132|135=10000|132=97|134=10000|60=20131110-16:47:24|64=20131113|10=088|
8=FIX.4.2|9=42|35=0|49=ISTY_TRADING_SYSTEM|56=ECHANGE_A|34=12|52=20131110-16:47:24|10=185|
8=FIX.4.2|9=42|35=0|49=ECHANGE_A|56=ISTY_TRADING_SYSTEM|34=12|52=20131110-16:47:25|10=185|
8=FIX.4.2|9=315|35=S|34=59|49=EXCHANGE_A|56=ISTY_TRADING_SYTEM|52=20131110-16:47:27|117=123|131=1|55=INTEL|133=128|135=10000|132=97|134=10000|60=20131110-16:47:27|64=20131113|10=088|
8=FIX.4.2|9=315|35=S|34=60|49=EXCHANGE_A|56=ISTY_TRADING_SYTEM|52=20131110-16:47:28|117=123|131=1|55=INTEL|133=125|135=10000|132=100|134=10000|60=20131110-16:47:28|64=20131113|10=088|
8=FIX.4.2|9=315|35=S|34=61|49=EXCHANGE_A|56=ISTY_TRADING_SYTEM|52=20131110-16:47:29|117=123|131=1|55=INTEL|133=122|135=10000|132=99|134=10000|60=20131110-16:47:29|64=20131113|10=088|
8=FIX.4.2|9=315|35=S|34=62|49=EXCHANGE_A|56=ISTY_TRADING_SYTEM|52=20131110-16:47:30|117=123|131=1|55=INTEL|133=123|135=10000|132=98|134=10000|60=20131110-16:47:30|64=20131113|10=088|
8=FIX.4.2|9=315|35=S|34=63|49=EXCHANGE_B|56=ISTY_TRADING_SYTEM|52=20131110-16:47:31|117=123|131=1|55=INTEL|133=126|135=10000|132=96|134=10000|60=20131110-16:47:31|64=20131113|10=088|
8=FIX.4.2|9=315|35=S|34=64|49=EXCHANGE_A|56=ISTY_TRADING_SYTEM|52=20131110-16:47:32|117=123|131=1|55=INTEL|133=123|135=10000|132=92|134=10000|60=20131110-16:47:32|64=20131113|10=088|
8=FIX.4.2|9=315|35=S|34=65|49=EXCHANGE_A|56=ISTY_TRADING_SYTEM|52=20131110-16:47:33|117=123|131=1|55=INTEL|133=124|135=10000|132=88|134=10000|60=20131110-16:47:33|64=20131113|10=088|
8=FIX.4.2|9=315|35=S|34=66|49=EXCHANGE_B|56=ISTY_TRADING_SYTEM|52=20131110-16:47:34|117=123|131=1|55=INTEL|133=123|135=10000|132=86|134=10000|60=20131110-16:47:34|64=20131113|10=088|
8=FIX.4.2|9=315|35=S|34=67|49=EXCHANGE_A|56=ISTY_TRADING_SYTEM|52=20131110-16:47:35|117=123|131=1|55=INTEL|133=119|135=10000|132=88|134=10000|60=20131110-16:47:35|64=20131113|10=088|
8=FIX.4.2|9=315|35=S|34=68|49=EXCHANGE_A|56=ISTY_TRADING_SYTEM|52=20131110-16:47:36|117=123|131=1|55=INTEL|133=121|135=10000|132=91|134=10000|60=20131110-16:47:36|64=20131113|10=088|
8=FIX.4.2|9=315|35=S|34=69|49=EXCHANGE_B|56=ISTY_TRADING_SYTEM|52=20131110-16:47:37|117=123|131=1|55=INTEL|133=121|135=10000|132=95|134=10000|60=20131110-16:47:37|64=20131113|10=088|
8=FIX.4.2|9=315|35=S|34=70|49=EXCHANGE_A|56=ISTY_TRADING_SYTEM|52=20131110-16:47:38|117=123|131=1|55=INTEL|133=119|135=10000|132=98|134=10000|60=20131110-16:47:38|64=20131113|10=088|
8=FIX.4.2|9=315|35=S|34=71|49=EXCHANGE_B|56=ISTY_TRADING_SYTEM|52=20131110-16:47:39|117=123|131=1|55=INTEL|133=123|135=10000|132=101|134=10000|60=20131110-16:47:39|64=20131113|10=088|
8=FIX.4.2|9=315|35=S|34=72|49=EXCHANGE_A|56=ISTY_TRADING_SYTEM|52=20131110-16:47:40|117=123|131=1|55=INTEL|133=122|135=10000|132=98|134=10000|60=20131110-16:47:40|64=20131113|10=088|
8=FIX.4.2|9=315|35=S|34=73|49=EXCHANGE_A|56=ISTY_TRADING_SYTEM|52=20131110-16:47:41|117=123|131=1|55=INTEL|133=120|135=10000|132=94|134=10000|60=20131110-16:47:41|64=20131113|10=088|
8=FIX.4.2|9=315|35=S|34=74|49=EXCHANGE_A|56=ISTY_TRADING_SYTEM|52=20131110-16:47:42|117=123|131=1|55=INTEL|133=119|135=10000|132=98|134=10000|60=20131110-16:47:42|64=20131113|10=088|
8=FIX.4.2|9=315|35=S|34=75|49=EXCHANGE_A|56=ISTY_TRADING_SYTEM|52=20131110-16:47:43|117=123|131=1|55=INTEL|133=116|135=10000|132=99|134=10000|60=20131110-16:47:43|64=20131113|10=088|
8=FIX.4.2|9=315|35=S|34=76|49=EXCHANGE_A|56=ISTY_TRADING_SYTEM|52=20131110-16:47:44|117=123|131=1|55=INTEL|133=118|135=10000|132=100|134=10000|60=20131110-16:47:44|64=20131113|10=088|
8=FIX.4.2|9=315|35=S|34=77|49=EXCHANGE_A|56=ISTY_TRADING_SYTEM|52=20131110-16:47:45|117=123|131=1|55=INTEL|133=115|135=10000|132=97|134=10000|60=20131110-16:47:45|64=20131113|10=088|
8=FIX.4.2|9=315|35=S|34=78|49=EXCHANGE_A|56=ISTY_TRADING_SYTEM|52=20131110-16:47:46|117=123|131=1|55=INTEL|133=111|135=10000|132=94|134=10000|60=20131110-16:47:46|64=20131113|10=088|
8=FIX.4.2|9=315|35=S|34=79|49=EXCHANGE_A|56=ISTY_TRADING_SYTEM|52=20131110-16:47:47|117=123|131=1|55=INTEL|133=115|135=10000|132=92|134=10000|60=20131110-16:47:47|64=20131113|10=088|
8=FIX.4.2|9=315|35=S|34=80|49=EXCHANGE_A|56=ISTY_TRADING_SYTEM|52=20131110-16:47:48|117=123|131=1|55=INTEL|133=114|135=10000|132=96|134=10000|60=20131110-16:47:48|64=20131113|10=088|
8=FIX.4.2|9=315|35=S|34=81|49=EXCHANGE_A|56=ISTY_TRADING_SYTEM|52=20131110-16:47:49|117=123|131=1|55=INTEL|133=117|135=10000|132=94|134=10000|60=20131110-16:47:49|64=20131113|10=088|
8=FIX.4.2|9=315|35=S|34=82|49=EXCHANGE_A|56=ISTY_TRADING_SYTEM|52=20131110-16:47:50|117=123|131=1|55=INTEL|133=113|135=10000|132=91|134=10000|60=20131110-16:47:50|64=20131113|10=088|
8=FIX.4.2|9=315|35=S|34=83|49=EXCHANGE_A|56=ISTY_TRADING_SYTEM|52=20131110-16:47:51|117=123|131=1|55=INTEL|133=116|135=10000|132=87|134=10000|60=20131110-16:47:51|64=20131113|10=088|
8=FIX.4.2|9=315|35=S|34=84|49=EXCHANGE_A|56=ISTY_TRADING_SYTEM|52=20131110-16:47:52|117=123|131=1|55=INTEL|133=118|135=10000|132=86|134=10000|60=20131110-16:47:52|64=20131113|10=088|
8=FIX.4.2|9=315|35=S|34=85|49=EXCHANGE_A|56=ISTY_TRADING_SYTEM|52=20131110-16:47:53|117=123|131=1|55=INTEL|133=121|135=10000|132=90|134=10000|60=20131110-16:47:53|64=20131113|10=088|
8=FIX.4.2|9=315|35=S|34=86|49=EXCHANGE_A|56=ISTY_TRADING_SYTEM|52=20131110-16:47:54|117=123|131=1|55=INTEL|133=124|135=10000|132=91|134=10000|60=20131110-16:47:54|64=20131113|10=088|
8=FIX.4.2|9=42|35=0|49=ISTY_TRADING_SYSTEM|56=ECHANGE_A|34=12|52=20131110-16:47:54|10=185|
8=FIX.4.2|9=42|35=0|49=ECHANGE_A|56=ISTY_TRADING_SYSTEM|34=12|52=20131110-16:47:55|10=185|
8=FIX.4.2|9=315|35=S|34=88|49=EXCHANGE_A|56=ISTY_TRADING_SYTEM|52=20131110-16:47:57|117=123|131=1|55=INTEL|133=120|135=10000|132=93|134=10000|60=20131110-16:47:57|64=20131113|10=088|
8=FIX.4.2|9=315|35=S|34=89|49=EXCHANGE_A|56=ISTY_TRADING_SYTEM|52=20131110-16:47:58|117=123|131=1|55=INTEL|133=121|135=10000|132=90|134=10000|60=20131110-16:47:58|64=20131113|10=088|
8=FIX.4.2|9=315|35=S|34=90|49=EXCHANGE_A|56=ISTY_TRADING_SYTEM|52=20131110-16:47:59|117=123|131=1|55=INTEL|133=120|135=10000|132=90|134=10000|60=20131110-16:47:59|64=20131113|10=088|
8=FIX.4.2|9=315|35=S|34=91|49=EXCHANGE_A|56=ISTY_TRADING_SYTEM|52=20131110-16:48:00|117=123|131=1|55=INTEL|133=119|135=10000|132=88|134=10000|60=20131110-16:48:00|64=20131113|10=088|
8=FIX.4.2|9=315|35=S|34=92|49=EXCHANGE_A|56=ISTY_TRADING_SYTEM|52=20131110-16:48:01|117=123|131=1|55=INTEL|133=121|135=10000|132=89|134=10000|60=20131110-16:48:01|64=20131113|10=088|
8=FIX.4.2|9=315|35=S|34=93|49=EXCHANGE_A|56=ISTY_TRADING_SYTEM|52=20131110-16:48:02|117=123|131=1|55=INTEL|133=119|135=10000|132=91|134=10000|60=20131110-16:48:02|64=20131113|10=088|
8=FIX.4.2|9=315|35=S|34=94|49=EXCHANGE_A|56=ISTY_TRADING_SYTEM|52=20131110-16:48:03|117=123|131=1|55=INTEL|133=116|135=10000|132=94|134=10000|60=20131110-16:48:03|64=20131113|10=088|
8=FIX.4.2|9=315|35=S|34=95|49=EXCHANGE_A|56=ISTY_TRADING_SYTEM|52=20131110-16:48:04|117=123|131=1|55=INTEL|133=117|135=10000|132=98|134=10000|60=20131110-16:48:04|64=20131113|10=088|
8=FIX.4.2|9=315|35=S|34=96|49=EXCHANGE_A|56=ISTY_TRADING_SYTEM|52=20131110-16:48:05|117=123|131=1|55=INTEL|133=119|135=10000|132=98|134=10000|60=20131110-16:48:05|64=20131113|10=088|
8=FIX.4.2|9=315|35=S|34=97|49=EXCHANGE_A|56=ISTY_TRADING_SYTEM|52=20131110-16:48:06|117=123|131=1|55=INTEL|133=117|135=10000|132=95|134=10000|60=20131110-16:48:06|64=20131113|10=088|
8=FIX.4.2|9=315|35=S|34=98|49=EXCHANGE_A|56=ISTY_TRADING_SYTEM|52=20131110-16:48:07|117=123|131=1|55=INTEL|133=115|135=10000|132=92|134=10000|60=20131110-16:48:07|64=20131113|10=088|
8=FIX.4.2|9=315|35=S|34=99|49=EXCHANGE_A|56=ISTY_TRADING_SYTEM|52=20131110-16:48:08|117=123|131=1|55=INTEL|133=114|135=10000|132=91|134=10000|60=20131110-16:48:08|64=20131113|10=088|
8=FIX.4.2|9=315|35=S|34=100|49=EXCHANGE_A|56=ISTY_TRADING_SYTEM|52=20131110-16:48:09|117=123|131=1|55=INTEL|133=116|135=10000|132=89|134=10000|60=20131110-16:48:09|64=20131113|10=088|
8=FIX.4.2|9=315|35=S|34=101|49=EXCHANGE_A|56=ISTY_TRADING_SYTEM|52=20131110-16:48:10|117=123|131=1|55=INTEL|133=116|135=10000|132=85|134=10000|60=20131110-16:48:10|64=20131113|10=088|
8=FIX.4.2|9=315|35=S|34=102|49=EXCHANGE_A|56=ISTY_TRADING_SYTEM|52=20131110-16:48:11|117=123|131=1|55=INTEL|133=119|135=10000|132=81|134=10000|60=20131110-16:48:11|64=20131113|10=088|
8=FIX.4.2|9=315|35=S|34=103|49=EXCHANGE_A|56=ISTY_TRADING_SYTEM|52=20131110-16:48:12|117=123|131=1|55=INTEL|133=115|135=10000|132=83|134=10000|60=20131110-16:48:12|64=20131113|10=088|
8=FIX.4.2|9=315|35=S|34=104|49=EXCHANGE_A|56=ISTY_TRADING_SYTEM|52=20131110-16:48:13|117=123|131=1|55=INTEL|133=117|135=10000|132=79|134=10000|60=20131110-16:48:13|64=20131113|10=088|
8=FIX.4.2|9=315|35=S|34=105|49=EXCHANGE_A|56=ISTY_TRADING_SYTEM|52=20131110-16:48:14|117=123|131=1|55=INTEL|133=119|135=10000|132=79|134=10000|60=20131110-16:48:14|64=20131113|10=088|
8=FIX.4.2|9=315|35=S|34=106|49=EXCHANGE_A|56=ISTY_TRADING_SYTEM|52=20131110-16:48:15|117=123|131=1|55=INTEL|133=119|135=10000|132=81|134=10000|60=20131110-16:48:15|64=20131113|10=088|
8=FIX.4.2|9=315|35=S|34=107|49=EXCHANGE_A|56=ISTY_TRADING_SYTEM|52=20131110-16:48:16|117=123|131=1|55=INTEL|133=122|135=10000|132=78|134=10000|60=20131110-16:48:16|64=20131113|10=088|
8=FIX.4.2|9=315|35=S|34=108|49=EXCHANGE_A|56=ISTY_TRADING_SYTEM|52=20131110-16:48:17|117=123|131=1|55=INTEL|133=125|135=10000|132=77|134=10000|60=20131110-16:48:17|64=20131113|10=088|
8=FIX.4.2|9=315|35=S|34=109|49=EXCHANGE_A|56=ISTY_TRADING_SYTEM|52=20131110-16:48:18|117=123|131=1|55=INTEL|133=127|135=10000|132=76|134=10000|60=20131110-16:48:18|64=20131113|10=088|
8=FIX.4.2|9=315|35=S|34=110|49=EXCHANGE_A|56=ISTY_TRADING_SYTEM|52=20131110-16:48:19|117=123|131=1|55=INTEL|133=124|135=10000|132=77|134=10000|60=20131110-16:48:19|64=20131113|10=088|
8=FIX.4.2|9=315|35=S|34=111|49=EXCHANGE_A|56=ISTY_TRADING_SYTEM|52=20131110-16:48:20|117=123|131=1|55=INTEL|133=127|135=10000|132=79|134=10000|60=20131110-16:48:20|64=20131113|10=088|
8=FIX.4.2|9=315|35=S|34=112|49=EXCHANGE_A|56=ISTY_TRADING_SYTEM|52=20131110-16:48:21|117=123|131=1|55=INTEL|133=124|135=10000|132=82|134=10000|60=20131110-16:48:21|64=20131113|10=088|
8=FIX.4.2|9=315|35=S|34=113|49=EXCHANGE_A|56=ISTY_TRADING_SYTEM|52=20131110-16:48:22|117=123|131=1|55=INTEL|133=127|135=10000|132=80|134=10000|60=20131110-16:48:22|64=20131113|10=088|
8=FIX.4.2|9=315|35=S|34=114|49=EXCHANGE_A|56=ISTY_TRADING_SYTEM|52=20131110-16:48:23|117=123|131=1|55=INTEL|133=125|135=10000|132=84|134=10000|60=20131110-16:48:23|64=20131113|10=088|
8=FIX.4.2|9=42|35=0|49=ISTY_TRADING_SYSTEM|56=ECHANGE_A|34=12|52=20131110-16:48:23|10=185|
8=FIX.4.2|9=42|35=0|49=ECHANGE_A|56=ISTY_TRADING_SYSTEM|34=12|52=20131110-16:48:24|10=185|
8=FIX.4.2|9=315|35=S|34=116|49=EXCHANGE_A|56=ISTY_TRADING_SYTEM|52=20131110-16:48:26|117=123|131=1|55=INTEL|133=125|135=10000|132=84|134=10000|60=20131110-16:48:26|64=20131113|10=088|
8=FIX.4.2|9=315|35=S|34=117|49=EXCHANGE_A|56=ISTY_TRADING_SYTEM|52=20131110-16:48:27|117=123|131=1|55=INTEL|133=125|135=10000|132=84|134=10000|60=20131110-16:48:27|64=20131113|10=088|
8=FIX.4.2|9=315|35=S|34=118|49=EXCHANGE_A|56=ISTY_TRADING_SYTEM|52=20131110-16:48:28|117=123|131=1|55=INTEL|133=125|135=10000|132=84|134=10000|60=20131110-16:48:28|64=20131113|10=088|
8=FIX.4.2|9=315|35=S|34=119|49=EXCHANGE_A|56=ISTY_TRADING_SYTEM|52=20131110-16:48:29|117=123|131=1|55=INTEL|133=125|135=10000|132=84|134=10000|60=20131110-16:48:29|64=20131113|10=088|
8=FIX.4.2|9=315|35=S|34=120|49=EXCHANGE_A|56=ISTY_TRADING_SYTEM|52=20131110-16:48:30|117=123|131=1|55=INTEL|133=125|135=10000|132=84|134=10000|60=20131110-16:48:30|64=20131113|10=088|
8=FIX.4.2|9=315|35=S|34=121|49=EXCHANGE_A|56=ISTY_TRADING_SYTEM|52=20131110-16:48:31|117=123|131=1|55=INTEL|133=125|135=10000|132=84|134=10000|60=20131110-16:48:31|64=20131113|10=088|
8=FIX.4.2|9=315|35=S|34=122|49=EXCHANGE_A|56=ISTY_TRADING_SYTEM|52=20131110-16:48:32|117=123|131=1|55=INTEL|133=125|135=10000|132=84|134=10000|60=20131110-16:48:32|64=20131113|10=088|
8=FIX.4.2|9=315|35=S|34=123|49=EXCHANGE_A|56=ISTY_TRADING_SYTEM|52=20131110-16:48:33|117=123|131=1|55=INTEL|133=125|135=10000|132=84|134=10000|60=20131110-16:48:33|64=20131113|10=088|
8=FIX.4.2|9=315|35=S|34=124|49=EXCHANGE_A|56=ISTY_TRADING_SYTEM|52=20131110-16:48:34|117=123|131=1|55=INTEL|133=125|135=10000|132=84|134=10000|60=20131110-16:48:34|64=20131113|10=088|
8=FIX.4.2|9=315|35=S|34=125|49=EXCHANGE_A|56=ISTY_TRADING_SYTEM|52=20131110-16:48:35|117=123|131=1|55=INTEL|133=125|135=10000|132=84|134=10000|60=20131110-16:48:35|64=20131113|10=088|
8=FIX.4.2|9=315|35=S|34=126|49=EXCHANGE_A|56=ISTY_TRADING_SYTEM|52=20131110-16:48:36|117=123|131=1|55=INTEL|133=125|135=10000|132=84|134=10000|60=20131110-16:48:36|64=20131113|10=088|
8=FIX.4.2|9=315|35=S|34=127|49=EXCHANGE_A|56=ISTY_TRADING_SYTEM|52=20131110-16:48:37|117=123|131=1|55=INTEL|133=125|135=10000|132=84|134=10000|60=20131110-16:48:37|64=20131113|10=088|
8=FIX.4.2|9=315|35=S|34=128|49=EXCHANGE_A|56=ISTY_TRADING_SYTEM|52=20131110-16:48:38|117=123|131=1|55=INTEL|133=125|135=10000|132=84|134=10000|60=20131110-16:48:38|64=20131113|10=088|
8=FIX.4.2|9=315|35=S|34=129|49=EXCHANGE_A|56=ISTY_TRADING_SYTEM|52=20131110-16:48:39|117=123|131=1|55=INTEL|133=125|135=10000|132=84|134=10000|60=20131110-16:48:39|64=20131113|10=088|
8=FIX.4.2|9=315|35=S|34=130|49=EXCHANGE_A|56=ISTY_TRADING_SYTEM|52=20131110-16:48:40|117=123|131=1|55=INTEL|133=125|135=10000|132=84|134=10000|60=20131110-16:48:40|64=20131113|10=088|
8=FIX.4.2|9=315|35=S|34=131|49=EXCHANGE_A|56=ISTY_TRADING_SYTEM|52=20131110-16:48:41|117=123|131=1|55=INTEL|133=125|135=10000|132=84|134=10000|60=20131110-16:48:41|64=20131113|10=088|
8=FIX.4.2|9=315|35=S|34=132|49=EXCHANGE_A|56=ISTY_TRADING_SYTEM|52=20131110-16:48:42|117=123|131=1|55=INTEL|133=125|135=10000|132=84|134=10000|60=20131110-16:48:42|64=20131113|10=088|
8=FIX.4.2|9=315|35=S|34=133|49=EXCHANGE_A|56=ISTY_TRADING_SYTEM|52=20131110-16:48:43|117=123|131=1|55=INTEL|133=125|135=10000|132=84|134=10000|60=20131110-16:48:43|64=20131113|10=088|
8=FIX.4.2|9=315|35=S|34=134|49=EXCHANGE_A|56=ISTY_TRADING_SYTEM|52=20131110-16:48:44|117=123|131=1|55=INTEL|133=125|135=10000|132=84|134=10000|60=20131110-16:48:44|64=20131113|10=088|
8=FIX.4.2|9=315|35=S|34=135|49=EXCHANGE_A|56=ISTY_TRADING_SYTEM|52=20131110-16:48:45|117=123|131=1|55=INTEL|133=125|135=10000|132=84|134=10000|60=20131110-16:48:45|64=20131113|10=088|
8=FIX.4.2|9=315|35=S|34=136|49=EXCHANGE_A|56=ISTY_TRADING_SYTEM|52=20131110-16:48:46|117=123|131=1|55=INTEL|133=125|135=10000|132=84|134=10000|60=20131110-16:48:46|64=20131113|10=088|
8=FIX.4.2|9=315|35=S|34=137|49=EXCHANGE_A|56=ISTY_TRADING_SYTEM|52=20131110-16:48:47|117=123|131=1|55=INTEL|133=125|135=10000|132=84|134=10000|60=20131110-16:48:47|64=20131113|10=088|
8=FIX.4.2|9=315|35=S|34=138|49=EXCHANGE_A|56=ISTY_TRADING_SYTEM|52=20131110-16:48:48|117=123|131=1|55=INTEL|133=125|135=10000|132=84|134=10000|60=20131110-16:48:48|64=20131113|10=088|
8=FIX.4.2|9=315|35=S|34=139|49=EXCHANGE_A|56=ISTY_TRADING_SYTEM|52=20131110-16:48:49|117=123|131=1|55=INTEL|133=125|135=10000|132=84|134=10000|60=20131110-16:48:49|64=20131113|10=088|
8=FIX.4.2|9=315|35=S|34=140|49=EXCHANGE_A|56=ISTY_TRADING_SYTEM|52=20131110-16:48:50|117=123|131=1|55=INTEL|133=125|135=10000|132=84|134=10000|60=20131110-16:48:50|64=20131113|10=088|
8=FIX.4.2|9=315|35=S|34=141|49=EXCHANGE_A|56=ISTY_TRADING_SYTEM|52=20131110-16:48:51|117=123|131=1|55=INTEL|133=125|135=10000|132=84|134=10000|60=20131110-16:48:51|64=20131113|10=088|
8=FIX.4.2|9=315|35=S|34=142|49=EXCHANGE_A|56=ISTY_TRADING_SYTEM|52=20131110-16:48:52|117=123|131=1|55=INTEL|133=125|135=10000|132=84|134=10000|60=20131110-16:48:52|64=20131113|10=088|
8=FIX.4.2|9=42|35=0|49=ISTY_TRADING_SYSTEM|56=ECHANGE_A|34=12|52=20131110-16:48:52|10=185|
8=FIX.4.2|9=42|35=0|49=ECHANGE_A|56=ISTY_TRADING_SYSTEM|34=12|52=20131110-16:48:53|10=185|
8=FIX.4.2|9=315|35=S|34=144|49=EXCHANGE_A|56=ISTY_TRADING_SYTEM|52=20131110-16:48:55|117=123|131=1|55=INTEL|133=125|135=10000|132=84|134=10000|60=20131110-16:48:55|64=20131113|10=088|
8=FIX.4.2|9=315|35=S|34=145|49=EXCHANGE_A|56=ISTY_TRADING_SYTEM|52=20131110-16:48:56|117=123|131=1|55=INTEL|133=125|135=10000|132=84|134=10000|60=20131110-16:48:56|64=20131113|10=088|
8=FIX.4.2|9=315|35=S|34=146|49=EXCHANGE_A|56=ISTY_TRADING_SYTEM|52=20131110-16:48:57|117=123|131=1|55=INTEL|133=125|135=10000|132=84|134=10000|60=20131110-16:48:57|64=20131113|10=088|
8=FIX.4.2|9=315|35=S|34=147|49=EXCHANGE_A|56=ISTY_TRADING_SYTEM|52=20131110-16:48:58|117=123|131=1|55=INTEL|133=125|135=10000|132=84|134=10000|60=20131110-16:48:58|64=20131113|10=088|
8=FIX.4.2|9=315|35=S|34=148|49=EXCHANGE_A|56=ISTY_TRADING_SYTEM|52=20131110-16:48:59|117=123|131=1|55=INTEL|133=125|135=10000|132=84|134=10000|60=20131110-16:48:59|64=20131113|10=088|
8=FIX.4.2|9=315|35=S|34=149|49=EXCHANGE_A|56=ISTY_TRADING_SYTEM|52=20131110-16:49:00|117=123|131=1|55=INTEL|133=125|135=10000|132=84|134=10000|60=20131110-16:49:00|64=20131113|10=088|
8=FIX.4.2|9=315|35=S|34=150|49=EXCHANGE_A|56=ISTY_TRADING_SYTEM|52=20131110-16:49:01|117=123|131=1|55=INTEL|133=125|135=10000|132=84|134=10000|60=20131110-16:49:01|64=20131113|10=088|
8=FIX.4.2|9=315|35=S|34=151|49=EXCHANGE_A|56=ISTY_TRADING_SYTEM|52=20131110-16:49:02|117=123|131=1|55=INTEL|133=125|135=10000|132=84|134=10000|60=20131110-16:49:02|64=20131113|10=088|
8=FIX.4.2|9=315|35=S|34=152|49=EXCHANGE_A|56=ISTY_TRADING_SYTEM|52=20131110-16:49:03|117=123|131=1|55=INTEL|133=125|135=10000|132=84|134=10000|60=20131110-16:49:03|64=20131113|10=088|
8=FIX.4.2|9=315|35=S|34=153|49=EXCHANGE_A|56=ISTY_TRADING_SYTEM|52=20131110-16:49:04|117=123|131=1|55=INTEL|133=125|135=10000|132=84|134=10000|60=20131110-16:49:04|64=20131113|10=088|
8=FIX.4.2|9=315|35=S|34=154|49=EXCHANGE_A|56=ISTY_TRADING_SYTEM|52=20131110-16:49:05|117=123|131=1|55=INTEL|133=125|135=10000|132=84|134=10000|60=20131110-16:49:05|64=20131113|10=088|
8=FIX.4.2|9=315|35=S|34=155|49=EXCHANGE_A|56=ISTY_TRADING_SYTEM|52=20131110-16:49:06|117=123|131=1|55=INTEL|133=125|135=10000|132=84|134=10000|60=20131110-16:49:06|64=20131113|10=088|
8=FIX.4.2|9=315|35=S|34=156|49=EXCHANGE_A|56=ISTY_TRADING_SYTEM|52=20131110-16:49:07|117=123|131=1|55=INTEL|133=125|135=10000|132=84|134=10000|60=20131110-16:49:07|64=20131113|10=088|
8=FIX.4.2|9=315|35=S|34=157|49=EXCHANGE_A|56=ISTY_TRADING_SYTEM|52=20131110-16:49:08|117=123|131=1|55=INTEL|133=125|135=10000|132=84|134=10000|60=20131110-16:49:08|64=20131113|10=088|
8=FIX.4.2|9=315|35=S|34=158|49=EXCHANGE_A|56=ISTY_TRADING_SYTEM|52=20131110-16:49:09|117=123|131=1|55=INTEL|133=125|135=10000|132=84|134=10000|60=20131110-16:49:09|64=20131113|10=088|
8=FIX.4.2|9=315|35=S|34=159|49=EXCHANGE_A|56=ISTY_TRADING_SYTEM|52=20131110-16:49:10|117=123|131=1|55=INTEL|133=125|135=10000|132=84|134=10000|60=20131110-16:49:10|64=20131113|10=088|
8=FIX.4.2|9=315|35=S|34=160|49=EXCHANGE_A|56=ISTY_TRADING_SYTEM|52=20131110-16:49:11|117=123|131=1|55=INTEL|133=125|135=10000|132=84|134=10000|60=20131110-16:49:11|64=20131113|10=088|
8=FIX.4.2|9=315|35=S|34=161|49=EXCHANGE_A|56=ISTY_TRADING_SYTEM|52=20131110-16:49:12|117=123|131=1|55=INTEL|133=125|135=10000|132=84|134=10000|60=20131110-16:49:12|64=20131113|10=088|
8=FIX.4.2|9=315|35=S|34=162|49=EXCHANGE_A|56=ISTY_TRADING_SYTEM|52=20131110-16:49:13|117=123|131=1|55=INTEL|133=125|135=10000|132=84|134=10000|60=20131110-16:49:13|64=20131113|10=088|
8=FIX.4.2|9=315|35=S|34=163|49=EXCHANGE_A|56=ISTY_TRADING_SYTEM|52=20131110-16:49:14|117=123|131=1|55=INTEL|133=125|135=10000|132=84|134=10000|60=20131110-16:49:14|64=20131113|10=088|
8=FIX.4.2|9=315|35=S|34=164|49=EXCHANGE_A|56=ISTY_TRADING_SYTEM|52=20131110-16:49:15|117=123|131=1|55=INTEL|133=125|135=10000|132=84|134=10000|60=20131110-16:49:15|64=20131113|10=088|
8=FIX.4.2|9=315|35=S|34=165|49=EXCHANGE_A|56=ISTY_TRADING_SYTEM|52=20131110-16:49:16|117=123|131=1|55=INTEL|133=125|135=10000|132=84|134=10000|60=20131110-16:49:16|64=20131113|10=088|
8=FIX.4.2|9=315|35=S|34=166|49=EXCHANGE_A|56=ISTY_TRADING_SYTEM|52=20131110-16:49:17|117=123|131=1|55=INTEL|133=125|135=10000|132=84|134=10000|60=20131110-16:49:17|64=20131113|10=088|
8=FIX.4.2|9=315|35=S|34=167|49=EXCHANGE_A|56=ISTY_TRADING_SYTEM|52=20131110-16:49:18|117=123|131=1|55=INTEL|133=125|135=10000|132=84|134=10000|60=20131110-16:49:18|64=20131113|10=088|
8=FIX.4.2|9=315|35=S|34=168|49=EXCHANGE_A|56=ISTY_TRADING_SYTEM|52=20131110-16:49:19|117=123|131=1|55=INTEL|133=125|135=10000|132=84|134=10000|60=20131110-16:49:19|64=20131113|10=088|
8=FIX.4.2|9=315|35=S|34=169|49=EXCHANGE_A|56=ISTY_TRADING_SYTEM|52=20131110-16:49:20|117=123|131=1|55=INTEL|133=125|135=10000|132=84|134=10000|60=20131110-16:49:20|64=20131113|10=088|
8=FIX.4.2|9=315|35=S|34=170|49=EXCHANGE_A|56=ISTY_TRADING_SYTEM|52=20131110-16:49:21|117=123|131=1|55=INTEL|133=125|135=10000|132=84|134=10000|60=20131110-16:49:21|64=20131113|10=088|
8=FIX.4.2|9=42|35=0|49=ISTY_TRADING_SYSTEM|56=ECHANGE_A|34=12|52=20131110-16:49:21|10=185|
8=FIX.4.2|9=42|35=0|49=ECHANGE_A|56=ISTY_TRADING_SYSTEM|34=12|52=20131110-16:49:22|10=185|
8=FIX.4.2|9=315|35=S|34=172|49=EXCHANGE_A|56=ISTY_TRADING_SYTEM|52=20131110-16:49:24|117=123|131=1|55=INTEL|133=125|135=10000|132=84|134=10000|60=20131110-16:49:24|64=20131113|10=088|
8=FIX.4.2|9=315|35=S|34=173|49=EXCHANGE_A|56=ISTY_TRADING_SYTEM|52=20131110-16:49:25|117=123|131=1|55=INTEL|133=125|135=10000|132=84|134=10000|60=20131110-16:49:25|64=20131113|10=088|
8=FIX.4.2|9=315|35=S|34=174|49=EXCHANGE_A|56=ISTY_TRADING_SYTEM|52=20131110-16:49:26|117=123|131=1|55=INTEL|133=125|135=10000|132=84|134=10000|60=20131110-16:49:26|64=20131113|10=088|
8=FIX.4.2|9=315|35=S|34=175|49=EXCHANGE_A|56=ISTY_TRADING_SYTEM|52=20131110-16:49:27|117=123|131=1|55=INTEL|133=125|135=10000|132=84|134=10000|60=20131110-16:49:27|64=20131113|10=088|
8=FIX.4.2|9=315|35=S|34=176|49=EXCHANGE_A|56=ISTY_TRADING_SYTEM|52=20131110-16:49:28|117=123|131=1|55=INTEL|133=125|135=10000|132=84|134=10000|60=20131110-16:49:28|64=20131113|10=088|
8=FIX.4.2|9=315|35=S|34=177|49=EXCHANGE_A|56=ISTY_TRADING_SYTEM|52=20131110-16:49:29|117=123|131=1|55=INTEL|133=125|135=10000|132=84|134=10000|60=20131110-16:49:29|64=20131113|10=088|
8=FIX.4.2|9=315|35=S|34=178|49=EXCHANGE_A|56=ISTY_TRADING_SYTEM|52=20131110-16:49:30|117=123|131=1|55=INTEL|133=125|135=10000|132=84|134=10000|60=20131110-16:49:30|64=20131113|10=088|
8=FIX.4.2|9=315|35=S|34=179|49=EXCHANGE_A|56=ISTY_TRADING_SYTEM|52=20131110-16:49:31|117=123|131=1|55=INTEL|133=125|135=10000|132=84|134=10000|60=20131110-16:49:31|64=20131113|10=088|
8=FIX.4.2|9=315|35=S|34=180|49=EXCHANGE_A|56=ISTY_TRADING_SYTEM|52=20131110-16:49:32|117=123|131=1|55=INTEL|133=125|135=10000|132=84|134=10000|60=20131110-16:49:32|64=20131113|10=088|
8=FIX.4.2|9=315|35=S|34=181|49=EXCHANGE_A|56=ISTY_TRADING_SYTEM|52=20131110-16:49:33|117=123|131=1|55=INTEL|133=125|135=10000|132=84|134=10000|60=20131110-16:49:33|64=20131113|10=088|
8=FIX.4.2|9=315|35=S|34=182|49=EXCHANGE_A|56=ISTY_TRADING_SYTEM|52=20131110-16:49:34|117=123|131=1|55=INTEL|133=125|135=10000|132=84|134=10000|60=20131110-16:49:34|64=20131113|10=088|
8=FIX.4.2|9=315|35=S|34=183|49=EXCHANGE_A|56=ISTY_TRADING_SYTEM|52=20131110-16:49:35|117=123|131=1|55=INTEL|133=125|135=10000|132=84|134=10000|60=20131110-16:49:35|64=20131113|10=088|
8=FIX.4.2|9=315|35=S|34=184|49=EXCHANGE_A|56=ISTY_TRADING_SYTEM|52=20131110-16:49:36|117=123|131=1|55=INTEL|133=125|135=10000|132=84|134=10000|60=20131110-16:49:36|64=20131113|10=088|
8=FIX.4.2|9=315|35=S|34=185|49=EXCHANGE_A|56=ISTY_TRADING_SYTEM|52=20131110-16:49:37|117=123|131=1|55=INTEL|133=125|135=10000|132=84|134=10000|60=20131110-16:49:37|64=20131113|10=088|
8=FIX.4.2|9=315|35=S|34=186|49=EXCHANGE_A|56=ISTY_TRADING_SYTEM|52=20131110-16:49:38|117=123|131=1|55=INTEL|133=125|135=10000|132=84|134=10000|60=20131110-16:49:38|64=20131113|10=088|
8=FIX.4.2|9=315|35=S|34=187|49=EXCHANGE_A|56=ISTY_TRADING_SYTEM|52=20131110-16:49:39|117=123|131=1|55=INTEL|133=125|135=10000|132=84|134=10000|60=20131110-16:49:39|64=20131113|10=088|
8=FIX.4.2|9=315|35=S|34=188|49=EXCHANGE_A|56=ISTY_TRADING_SYTEM|52=20131110-16:49:40|117=123|131=1|55=INTEL|133=125|135=10000|132=84|134=10000|60=20131110-16:49:40|64=20131113|10=088|
8=FIX.4.2|9=315|35=S|34=189|49=EXCHANGE_A|56=ISTY_TRADING_SYTEM|52=20131110-16:49:41|117=123|131=1|55=INTEL|133=125|135=10000|132=84|134=10000|60=20131110-16:49:41|64=20131113|10=088|
8=FIX.4.2|9=315|35=S|34=190|49=EXCHANGE_A|56=ISTY_TRADING_SYTEM|52=20131110-16:49:42|117=123|131=1|55=INTEL|133=125|135=10000|132=84|134=10000|60=20131110-16:49:42|64=20131113|10=088|
8=FIX.4.2|9=315|35=S|34=191|49=EXCHANGE_A|56=ISTY_TRADING_SYTEM|52=20131110-16:49:43|117=123|131=1|55=INTEL|133=125|135=10000|132=84|134=10000|60=20131110-16:49:43|64=20131113|10=088|
8=FIX.4.2|9=315|35=S|34=192|49=EXCHANGE_A|56=ISTY_TRADING_SYTEM|52=20131110-16:49:44|117=123|131=1|55=INTEL|133=125|135=10000|132=84|134=10000|60=20131110-16:49:44|64=20131113|10=088|
8=FIX.4.2|9=315|35=S|34=193|49=EXCHANGE_A|56=ISTY_TRADING_SYTEM|52=20131110-16:49:45|117=123|131=1|55=INTEL|133=125|135=10000|132=84|134=10000|60=20131110-16:49:45|64=20131113|10=088|
8=FIX.4.2|9=315|35=S|34=194|49=EXCHANGE_A|56=ISTY_TRADING_SYTEM|52=20131110-16:49:46|117=123|131=1|55=INTEL|133=125|135=10000|132=84|134=10000|60=20131110-16:49:46|64=20131113|10=088|
8=FIX.4.2|9=315|35=S|34=195|49=EXCHANGE_A|56=ISTY_TRADING_SYTEM|52=20131110-16:49:47|117=123|131=1|55=INTEL|133=125|135=10000|132=84|134=10000|60=20131110-16:49:47|64=20131113|10=088|
8=FIX.4.2|9=315|35=S|34=196|49=EXCHANGE_A|56=ISTY_TRADING_SYTEM|52=20131110-16:49:48|117=123|131=1|55=INTEL|133=125|135=10000|132=84|134=10000|60=20131110-16:49:48|64=20131113|10=088|
8=FIX.4.2|9=315|35=S|34=197|49=EXCHANGE_A|56=ISTY_TRADING_SYTEM|52=20131110-16:49:49|117=123|131=1|55=INTEL|133=125|135=10000|132=84|134=10000|60=20131110-16:49:49|64=20131113|10=088|
8=FIX.4.2|9=315|35=S|34=198|49=EXCHANGE_A|56=ISTY_TRADING_SYTEM|52=20131110-16:49:50|117=123|131=1|55=INTEL|133=125|135=10000|132=84|134=10000|60=20131110-16:49:50|64=20131113|10=088|
8=FIX.4.2|9=42|35=0|49=ISTY_TRADING_SYSTEM|56=ECHANGE_A|34=12|52=20131110-16:49:50|10=185|
8=FIX.4.2|9=42|35=0|49=ECHANGE_A|56=ISTY_TRADING_SYSTEM|34=12|52=20131110-16:49:51|10=185|
8=FIX.4.2|9=315|35=S|34=200|49=EXCHANGE_A|56=ISTY_TRADING_SYTEM|52=20131110-16:49:53|117=123|131=1|55=INTEL|133=125|135=10000|132=84|134=10000|60=20131110-16:49:53|64=20131113|10=088|
8=FIX.4.2|9=315|35=S|34=201|49=EXCHANGE_A|56=ISTY_TRADING_SYTEM|52=20131110-16:49:54|117=123|131=1|55=INTEL|133=125|135=10000|132=84|134=10000|60=20131110-16:49:54|64=20131113|10=088|
8=FIX.4.2|9=315|35=S|34=202|49=EXCHANGE_A|56=ISTY_TRADING_SYTEM|52=20131110-16:49:55|117=123|131=1|55=INTEL|133=125|135=10000|132=84|134=10000|60=20131110-16:49:55|64=20131113|10=088|
8=FIX.4.2|9=315|35=S|34=203|49=EXCHANGE_A|56=ISTY_TRADING_SYTEM|52=20131110-16:49:56|117=123|131=1|55=INTEL|133=125|135=10000|132=84|134=10000|60=20131110-16:49:56|64=20131113|10=088|
8=FIX.4.2|9=315|35=S|34=204|49=EXCHANGE_A|56=ISTY_TRADING_SYTEM|52=20131110-16:49:57|117=123|131=1|55=INTEL|133=125|135=10000|132=84|134=10000|60=20131110-16:49:57|64=20131113|10=088|
8=FIX.4.2|9=315|35=S|34=205|49=EXCHANGE_A|56=ISTY_TRADING_SYTEM|52=20131110-16:49:58|117=123|131=1|55=INTEL|133=125|135=10000|132=84|134=10000|60=20131110-16:49:58|64=20131113|10=088|
8=FIX.4.2|9=315|35=S|34=206|49=EXCHANGE_A|56=ISTY_TRADING_SYTEM|52=20131110-16:49:59|117=123|131=1|55=INTEL|133=125|135=10000|132=84|134=10000|60=20131110-16:49:59|64=20131113|10=088|
8=FIX.4.2|9=315|35=S|34=207|49=EXCHANGE_A|56=ISTY_TRADING_SYTEM|52=20131110-16:50:00|117=123|131=1|55=INTEL|133=125|135=10000|132=84|134=10000|60=20131110-16:50:00|64=20131113|10=088|
8=FIX.4.2|9=315|35=S|34=208|49=EXCHANGE_A|56=ISTY_TRADING_SYTEM|52=20131110-16:50:01|117=123|131=1|55=INTEL|133=125|135=10000|132=84|134=10000|60=20131110-16:50:01|64=20131113|10=088|
8=FIX.4.2|9=315|35=S|34=209|49=EXCHANGE_A|56=ISTY_TRADING_SYTEM|52=20131110-16:50:02|117=123|131=1|55=INTEL|133=125|135=10000|132=84|134=10000|60=20131110-16:50:02|64=20131113|10=088|
8=FIX.4.2|9=315|35=S|34=210|49=EXCHANGE_A|56=ISTY_TRADING_SYTEM|52=20131110-16:50:03|117=123|131=1|55=INTEL|133=125|135=10000|132=84|134=10000|60=20131110-16:50:03|64=20131113|10=088|
8=FIX.4.2|9=315|35=S|34=211|49=EXCHANGE_A|56=ISTY_TRADING_SYTEM|52=20131110-16:50:04|117=123|131=1|55=INTEL|133=125|135=10000|132=84|134=10000|60=20131110-16:50:04|64=20131113|10=088|
8=FIX.4.2|9=315|35=S|34=212|49=EXCHANGE_A|56=ISTY_TRADING_SYTEM|52=20131110-16:50:05|117=123|131=1|55=INTEL|133=125|135=10000|132=84|134=10000|60=20131110-16:50:05|64=20131113|10=088|
8=FIX.4.2|9=315|35=S|34=213|49=EXCHANGE_A|56=ISTY_TRADING_SYTEM|52=20131110-16:50:06|117=123|131=1|55=INTEL|133=125|135=10000|132=84|134=10000|60=20131110-16:50:06|64=20131113|10=088|
8=FIX.4.2|9=315|35=S|34=214|49=EXCHANGE_A|56=ISTY_TRADING_SYTEM|52=20131110-16:50:07|117=123|131=1|55=INTEL|133=125|135=10000|132=84|134=10000|60=20131110-16:50:07|64=20131113|10=088|
8=FIX.4.2|9=315|35=S|34=215|49=EXCHANGE_A|56=ISTY_TRADING_SYTEM|52=20131110-16:50:08|117=123|131=1|55=INTEL|133=125|135=10000|132=84|134=10000|60=20131110-16:50:08|64=20131113|10=088|
8=FIX.4.2|9=315|35=S|34=216|49=EXCHANGE_A|56=ISTY_TRADING_SYTEM|52=20131110-16:50:09|117=123|131=1|55=INTEL|133=125|135=10000|132=84|134=10000|60=20131110-16:50:09|64=20131113|10=088|
8=FIX.4.2|9=315|35=S|34=217|49=EXCHANGE_A|56=ISTY_TRADING_SYTEM|52=20131110-16:50:10|117=123|131=1|55=INTEL|133=125|135=10000|132=84|134=10000|60=20131110-16:50:10|64=20131113|10=088|
8=FIX.4.2|9=315|35=S|34=218|49=EXCHANGE_A|56=ISTY_TRADING_SYTEM|52=20131110-16:50:11|117=123|131=1|55=INTEL|133=125|135=10000|132=84|134=10000|60=20131110-16:50:11|64=20131113|10=088|
8=FIX.4.2|9=315|35=S|34=219|49=EXCHANGE_A|56=ISTY_TRADING_SYTEM|52=20131110-16:50:12|117=123|131=1|55=INTEL|133=125|135=10000|132=84|134=10000|60=20131110-16:50:12|64=20131113|10=088|
8=FIX.4.2|9=315|35=S|34=220|49=EXCHANGE_A|56=ISTY_TRADING_SYTEM|52=20131110-16:50:13|117=123|131=1|55=INTEL|133=125|135=10000|132=84|134=10000|60=20131110-16:50:13|64=20131113|10=088|
8=FIX.4.2|9=315|35=S|34=221|49=EXCHANGE_A|56=ISTY_TRADING_SYTEM|52=20131110-16:50:14|117=123|131=1|55=INTEL|133=125|135=10000|132=84|134=10000|60=20131110-16:50:14|64=20131113|10=088|
8=FIX.4.2|9=315|35=S|34=222|49=EXCHANGE_A|56=ISTY_TRADING_SYTEM|52=20131110-16:50:15|117=123|131=1|55=INTEL|133=125|135=10000|132=84|134=10000|60=20131110-16:50:15|64=20131113|10=088|
8=FIX.4.2|9=315|35=S|34=223|49=EXCHANGE_A|56=ISTY_TRADING_SYTEM|52=20131110-16:50:16|117=123|131=1|55=INTEL|133=125|135=10000|132=84|134=10000|60=20131110-16:50:16|64=20131113|10=088|
8=FIX.4.2|9=315|35=S|34=224|49=EXCHANGE_A|56=ISTY_TRADING_SYTEM|52=20131110-16:50:17|117=123|131=1|55=INTEL|133=125|135=10000|132=84|134=10000|60=20131110-16:50:17|64=20131113|10=088|
8=FIX.4.2|9=315|35=S|34=225|49=EXCHANGE_A|56=ISTY_TRADING_SYTEM|52=20131110-16:50:18|117=123|131=1|55=INTEL|133=125|135=10000|132=84|134=10000|60=20131110-16:50:18|64=20131113|10=088|
8=FIX.4.2|9=315|35=S|34=226|49=EXCHANGE_A|56=ISTY_TRADING_SYTEM|52=20131110-16:50:19|117=123|131=1|55=INTEL|133=125|135=10000|132=84|134=10000|60=20131110-16:50:19|64=20131113|10=088|
8=FIX.4.2|9=42|35=0|49=ISTY_TRADING_SYSTEM|56=ECHANGE_A|34=12|52=20131110-16:50:19|10=185|
8=FIX.4.2|9=42|35=0|49=ECHANGE_A|56=ISTY_TRADING_SYSTEM|34=12|52=20131110-16:50:20|10=185|
8=FIX.4.2|9=315|35=S|34=228|49=EXCHANGE_A|56=ISTY_TRADING_SYTEM|52=20131110-16:50:22|117=123|131=1|55=INTEL|133=125|135=10000|132=84|134=10000|60=20131110-16:50:22|64=20131113|10=088|
8=FIX.4.2|9=315|35=S|34=229|49=EXCHANGE_A|56=ISTY_TRADING_SYTEM|52=20131110-16:50:23|117=123|131=1|55=INTEL|133=125|135=10000|132=84|134=10000|60=20131110-16:50:23|64=20131113|10=088|
8=FIX.4.2|9=315|35=S|34=230|49=EXCHANGE_A|56=ISTY_TRADING_SYTEM|52=20131110-16:50:24|117=123|131=1|55=INTEL|133=125|135=10000|132=84|134=10000|60=20131110-16:50:24|64=20131113|10=088|
8=FIX.4.2|9=315|35=S|34=231|49=EXCHANGE_A|56=ISTY_TRADING_SYTEM|52=20131110-16:50:25|117=123|131=1|55=INTEL|133=125|135=10000|132=84|134=10000|60=20131110-16:50:25|64=20131113|10=088|
8=FIX.4.2|9=315|35=S|34=232|49=EXCHANGE_A|56=ISTY_TRADING_SYTEM|52=20131110-16:50:26|117=123|131=1|55=INTEL|133=125|135=10000|132=84|134=10000|60=20131110-16:50:26|64=20131113|10=088|
8=FIX.4.2|9=315|35=S|34=233|49=EXCHANGE_A|56=ISTY_TRADING_SYTEM|52=20131110-16:50:27|117=123|131=1|55=INTEL|133=125|135=10000|132=84|134=10000|60=20131110-16:50:27|64=20131113|10=088|
8=FIX.4.2|9=315|35=S|34=234|49=EXCHANGE_A|56=ISTY_TRADING_SYTEM|52=20131110-16:50:28|117=123|131=1|55=INTEL|133=125|135=10000|132=84|134=10000|60=20131110-16:50:28|64=20131113|10=088|
8=FIX.4.2|9=315|35=S|34=235|49=EXCHANGE_A|56=ISTY_TRADING_SYTEM|52=20131110-16:50:29|117=123|131=1|55=INTEL|133=125|135=10000|132=84|134=10000|60=20131110-16:50:29|64=20131113|10=088|
8=FIX.4.2|9=315|35=S|34=236|49=EXCHANGE_A|56=ISTY_TRADING_SYTEM|52=20131110-16:50:30|117=123|131=1|55=INTEL|133=125|135=10000|132=84|134=10000|60=20131110-16:50:30|64=20131113|10=088|
8=FIX.4.2|9=315|35=S|34=237|49=EXCHANGE_A|56=ISTY_TRADING_SYTEM|52=20131110-16:50:31|117=123|131=1|55=INTEL|133=125|135=10000|132=84|134=10000|60=20131110-16:50:31|64=20131113|10=088|
8=FIX.4.2|9=315|35=S|34=238|49=EXCHANGE_A|56=ISTY_TRADING_SYTEM|52=20131110-16:50:32|117=123|131=1|55=INTEL|133=125|135=10000|132=84|134=10000|60=20131110-16:50:32|64=20131113|10=088|
8=FIX.4.2|9=315|35=S|34=239|49=EXCHANGE_A|56=ISTY_TRADING_SYTEM|52=20131110-16:50:33|117=123|131=1|55=INTEL|133=125|135=10000|132=84|134=10000|60=20131110-16:50:33|64=20131113|10=088|
8=FIX.4.2|9=315|35=S|34=240|49=EXCHANGE_A|56=ISTY_TRADING_SYTEM|52=20131110-16:50:34|117=123|131=1|55=INTEL|133=125|135=10000|132=84|134=10000|60=20131110-16:50:34|64=20131113|10=088|
8=FIX.4.2|9=315|35=S|34=241|49=EXCHANGE_A|56=ISTY_TRADING_SYTEM|52=20131110-16:50:35|117=123|131=1|55=INTEL|133=125|135=10000|132=84|134=10000|60=20131110-16:50:35|64=20131113|10=088|
8=FIX.4.2|9=315|35=S|34=242|49=EXCHANGE_A|56=ISTY_TRADING_SYTEM|52=20131110-16:50:36|117=123|131=1|55=INTEL|133=125|135=10000|132=84|134=10000|60=20131110-16:50:36|64=20131113|10=088|
8=FIX.4.2|9=315|35=S|34=243|49=EXCHANGE_A|56=ISTY_TRADING_SYTEM|52=20131110-16:50:37|117=123|131=1|55=INTEL|133=125|135=10000|132=84|134=10000|60=20131110-16:50:37|64=20131113|10=088|
8=FIX.4.2|9=315|35=S|34=244|49=EXCHANGE_A|56=ISTY_TRADING_SYTEM|52=20131110-16:50:38|117=123|131=1|55=INTEL|133=125|135=10000|132=84|134=10000|60=20131110-16:50:38|64=20131113|10=088|
8=FIX.4.2|9=315|35=S|34=245|49=EXCHANGE_A|56=ISTY_TRADING_SYTEM|52=20131110-16:50:39|117=123|131=1|55=INTEL|133=125|135=10000|132=84|134=10000|60=20131110-16:50:39|64=20131113|10=088|
8=FIX.4.2|9=315|35=S|34=246|49=EXCHANGE_A|56=ISTY_TRADING_SYTEM|52=20131110-16:50:40|117=123|131=1|55=INTEL|133=125|135=10000|132=84|134=10000|60=20131110-16:50:40|64=20131113|10=088|
8=FIX.4.2|9=315|35=S|34=247|49=EXCHANGE_A|56=ISTY_TRADING_SYTEM|52=20131110-16:50:41|117=123|131=1|55=INTEL|133=125|135=10000|132=84|134=10000|60=20131110-16:50:41|64=20131113|10=088|
8=FIX.4.2|9=315|35=S|34=248|49=EXCHANGE_A|56=ISTY_TRADING_SYTEM|52=20131110-16:50:42|117=123|131=1|55=INTEL|133=125|135=10000|132=84|134=10000|60=20131110-16:50:42|64=20131113|10=088|
8=FIX.4.2|9=315|35=S|34=249|49=EXCHANGE_A|56=ISTY_TRADING_SYTEM|52=20131110-16:50:43|117=123|131=1|55=INTEL|133=125|135=10000|132=84|134=10000|60=20131110-16:50:43|64=20131113|10=088|
8=FIX.4.2|9=315|35=S|34=250|49=EXCHANGE_A|56=ISTY_TRADING_SYTEM|52=20131110-16:50:44|117=123|131=1|55=INTEL|133=125|135=10000|132=84|134=10000|60=20131110-16:50:44|64=20131113|10=088|
8=FIX.4.2|9=315|35=S|34=251|49=EXCHANGE_A|56=ISTY_TRADING_SYTEM|52=20131110-16:50:45|117=123|131=1|55=INTEL|133=125|135=10000|132=84|134=10000|60=20131110-16:50:45|64=20131113|10=088|
8=FIX.4.2|9=315|35=S|34=252|49=EXCHANGE_A|56=ISTY_TRADING_SYTEM|52=20131110-16:50:46|117=123|131=1|55=INTEL|133=125|135=10000|132=84|134=10000|60=20131110-16:50:46|64=20131113|10=088|
8=FIX.4.2|9=315|35=S|34=253|49=EXCHANGE_A|56=ISTY_TRADING_SYTEM|52=20131110-16:50:47|117=123|131=1|55=INTEL|133=125|135=10000|132=84|134=10000|60=20131110-16:50:47|64=20131113|10=088|
8=FIX.4.2|9=315|35=S|34=254|49=EXCHANGE_A|56=ISTY_TRADING_SYTEM|52=20131110-16:50:48|117=123|131=1|55=INTEL|133=125|135=10000|132=84|134=10000|60=20131110-16:50:48|64=20131113|10=088|
8=FIX.4.2|9=42|35=0|49=ISTY_TRADING_SYSTEM|56=ECHANGE_A|34=12|52=20131110-16:50:48|10=185|
8=FIX.4.2|9=42|35=0|49=ECHANGE_A|56=ISTY_TRADING_SYSTEM|34=12|52=20131110-16:50:49|10=185|
8=FIX.4.2|9=315|35=S|34=256|49=EXCHANGE_A|56=ISTY_TRADING_SYTEM|52=20131110-16:50:51|117=123|131=1|55=INTEL|133=125|135=10000|132=84|134=10000|60=20131110-16:50:51|64=20131113|10=088|
8=FIX.4.2|9=315|35=S|34=257|49=EXCHANGE_A|56=ISTY_TRADING_SYTEM|52=20131110-16:50:52|117=123|131=1|55=INTEL|133=125|135=10000|132=84|134=10000|60=20131110-16:50:52|64=20131113|10=088|
8=FIX.4.2|9=315|35=S|34=258|49=EXCHANGE_A|56=ISTY_TRADING_SYTEM|52=20131110-16:50:53|117=123|131=1|55=INTEL|133=125|135=10000|132=84|134=10000|60=20131110-16:50:53|64=20131113|10=088|
8=FIX.4.2|9=315|35=S|34=259|49=EXCHANGE_A|56=ISTY_TRADING_SYTEM|52=20131110-16:50:54|117=123|131=1|55=INTEL|133=125|135=10000|132=84|134=10000|60=20131110-16:50:54|64=20131113|10=088|
8=FIX.4.2|9=315|35=S|34=260|49=EXCHANGE_A|56=ISTY_TRADING_SYTEM|52=20131110-16:50:55|117=123|131=1|55=INTEL|133=125|135=10000|132=84|134=10000|60=20131110-16:50:55|64=20131113|10=088|
8=FIX.4.2|9=315|35=S|34=261|49=EXCHANGE_A|56=ISTY_TRADING_SYTEM|52=20131110-16:50:56|117=123|131=1|55=INTEL|133=125|135=10000|132=84|134=10000|60=20131110-16:50:56|64=20131113|10=088|
8=FIX.4.2|9=315|35=S|34=262|49=EXCHANGE_A|56=ISTY_TRADING_SYTEM|52=20131110-16:50:57|117=123|131=1|55=INTEL|133=125|135=10000|132=84|134=10000|60=20131110-16:50:57|64=20131113|10=088|
8=FIX.4.2|9=315|35=S|34=263|49=EXCHANGE_A|56=ISTY_TRADING_SYTEM|52=20131110-16:50:58|117=123|131=1|55=INTEL|133=125|135=10000|132=84|134=10000|60=20131110-16:50:58|64=20131113|10=088|
8=FIX.4.2|9=315|35=S|34=264|49=EXCHANGE_A|56=ISTY_TRADING_SYTEM|52=20131110-16:50:59|117=123|131=1|55=INTEL|133=125|135=10000|132=84|134=10000|60=20131110-16:50:59|64=20131113|10=088|
8=FIX.4.2|9=315|35=S|34=265|49=EXCHANGE_A|56=ISTY_TRADING_SYTEM|52=20131110-16:51:00|117=123|131=1|55=INTEL|133=125|135=10000|132=84|134=10000|60=20131110-16:51:00|64=20131113|10=088|
8=FIX.4.2|9=315|35=S|34=266|49=EXCHANGE_A|56=ISTY_TRADING_SYTEM|52=20131110-16:51:01|117=123|131=1|55=INTEL|133=125|135=10000|132=84|134=10000|60=20131110-16:51:01|64=20131113|10=088|
8=FIX.4.2|9=315|35=S|34=267|49=EXCHANGE_A|56=ISTY_TRADING_SYTEM|52=20131110-16:51:02|117=123|131=1|55=INTEL|133=125|135=10000|132=84|134=10000|60=20131110-16:51:02|64=20131113|10=088|
8=FIX.4.2|9=315|35=S|34=268|49=EXCHANGE_A|56=ISTY_TRADING_SYTEM|52=20131110-16:51:03|117=123|131=1|55=INTEL|133=125|135=10000|132=84|134=10000|60=20131110-16:51:03|64=20131113|10=088|
8=FIX.4.2|9=315|35=S|34=269|49=EXCHANGE_A|56=ISTY_TRADING_SYTEM|52=20131110-16:51:04|117=123|131=1|55=INTEL|133=125|135=10000|132=84|134=10000|60=20131110-16:51:04|64=20131113|10=088|
8=FIX.4.2|9=315|35=S|34=270|49=EXCHANGE_A|56=ISTY_TRADING_SYTEM|52=20131110-16:51:05|117=123|131=1|55=INTEL|133=125|135=10000|132=84|134=10000|60=20131110-16:51:05|64=20131113|10=088|
8=FIX.4.2|9=315|35=S|34=271|49=EXCHANGE_A|56=ISTY_TRADING_SYTEM|52=20131110-16:51:06|117=123|131=1|55=INTEL|133=125|135=10000|132=84|134=10000|60=20131110-16:51:06|64=20131113|10=088|
8=FIX.4.2|9=315|35=S|34=272|49=EXCHANGE_A|56=ISTY_TRADING_SYTEM|52=20131110-16:51:07|117=123|131=1|55=INTEL|133=125|135=10000|132=84|134=10000|60=20131110-16:51:07|64=20131113|10=088|
8=FIX.4.2|9=315|35=S|34=273|49=EXCHANGE_A|56=ISTY_TRADING_SYTEM|52=20131110-16:51:08|117=123|131=1|55=INTEL|133=125|135=10000|132=84|134=10000|60=20131110-16:51:08|64=20131113|10=088|
8=FIX.4.2|9=315|35=S|34=274|49=EXCHANGE_A|56=ISTY_TRADING_SYTEM|52=20131110-16:51:09|117=123|131=1|55=INTEL|133=125|135=10000|132=84|134=10000|60=20131110-16:51:09|64=20131113|10=088|
8=FIX.4.2|9=315|35=S|34=275|49=EXCHANGE_A|56=ISTY_TRADING_SYTEM|52=20131110-16:51:10|117=123|131=1|55=INTEL|133=125|135=10000|132=84|134=10000|60=20131110-16:51:10|64=20131113|10=088|
8=FIX.4.2|9=315|35=S|34=276|49=EXCHANGE_A|56=ISTY_TRADING_SYTEM|52=20131110-16:51:11|117=123|131=1|55=INTEL|133=125|135=10000|132=84|134=10000|60=20131110-16:51:11|64=20131113|10=088|
8=FIX.4.2|9=315|35=S|34=277|49=EXCHANGE_A|56=ISTY_TRADING_SYTEM|52=20131110-16:51:12|117=123|131=1|55=INTEL|133=125|135=10000|132=84|134=10000|60=20131110-16:51:12|64=20131113|10=088|
8=FIX.4.2|9=315|35=S|34=278|49=EXCHANGE_A|56=ISTY_TRADING_SYTEM|52=20131110-16:51:13|117=123|131=1|55=INTEL|133=125|135=10000|132=84|134=10000|60=20131110-16:51:13|64=20131113|10=088|
8=FIX.4.2|9=315|35=S|34=279|49=EXCHANGE_A|56=ISTY_TRADING_SYTEM|52=20131110-16:51:14|117=123|131=1|55=INTEL|133=125|135=10000|132=84|134=10000|60=20131110-16:51:14|64=20131113|10=088|
8=FIX.4.2|9=315|35=S|34=280|49=EXCHANGE_A|56=ISTY_TRADING_SYTEM|52=20131110-16:51:15|117=123|131=1|55=INTEL|133=125|135=10000|132=84|134=10000|60=20131110-16:51:15|64=20131113|10=088|
8=FIX.4.2|9=315|35=S|34=281|49=EXCHANGE_A|56=ISTY_TRADING_SYTEM|52=20131110-16:51:16|117=123|131=1|55=INTEL|133=125|135=10000|132=84|134=10000|60=20131110-16:51:16|64=20131113|10=088|
8=FIX.4.2|9=315|35=S|34=282|49=EXCHANGE_A|56=ISTY_TRADING_SYTEM|52=20131110-16:51:17|117=123|131=1|55=INTEL|133=125|135=10000|132=84|134=10000|60=20131110-16:51:17|64=20131113|10=088|
8=FIX.4.2|9=42|35=0|49=ISTY_TRADING_SYSTEM|56=ECHANGE_A|34=12|52=20131110-16:51:17|10=185|
8=FIX.4.2|9=42|35=0|49=ECHANGE_A|56=ISTY_TRADING_SYSTEM|34=12|52=20131110-16:51:18|10=185|
8=FIX.4.2|9=315|35=S|34=284|49=EXCHANGE_A|56=ISTY_TRADING_SYTEM|52=20131110-16:51:20|117=123|131=1|55=INTEL|133=125|135=10000|132=84|134=10000|60=20131110-16:51:20|64=20131113|10=088|
8=FIX.4.2|9=315|35=S|34=285|49=EXCHANGE_A|56=ISTY_TRADING_SYTEM|52=20131110-16:51:21|117=123|131=1|55=INTEL|133=125|135=10000|132=84|134=10000|60=20131110-16:51:21|64=20131113|10=088|
8=FIX.4.2|9=315|35=S|34=286|49=EXCHANGE_A|56=ISTY_TRADING_SYTEM|52=20131110-16:51:22|117=123|131=1|55=INTEL|133=125|135=10000|132=84|134=10000|60=20131110-16:51:22|64=20131113|10=088|
8=FIX.4.2|9=315|35=S|34=287|49=EXCHANGE_A|56=ISTY_TRADING_SYTEM|52=20131110-16:51:23|117=123|131=1|55=INTEL|133=125|135=10000|132=84|134=10000|60=20131110-16:51:23|64=20131113|10=088|
8=FIX.4.2|9=315|35=S|34=288|49=EXCHANGE_A|56=ISTY_TRADING_SYTEM|52=20131110-16:51:24|117=123|131=1|55=INTEL|133=125|135=10000|132=84|134=10000|60=20131110-16:51:24|64=20131113|10=088|
8=FIX.4.2|9=315|35=S|34=289|49=EXCHANGE_A|56=ISTY_TRADING_SYTEM|52=20131110-16:51:25|117=123|131=1|55=INTEL|133=125|135=10000|132=84|134=10000|60=20131110-16:51:25|64=20131113|10=088|
8=FIX.4.2|9=315|35=S|34=290|49=EXCHANGE_A|56=ISTY_TRADING_SYTEM|52=20131110-16:51:26|117=123|131=1|55=INTEL|133=125|135=10000|132=84|134=10000|60=20131110-16:51:26|64=20131113|10=088|
8=FIX.4.2|9=315|35=S|34=291|49=EXCHANGE_A|56=ISTY_TRADING_SYTEM|52=20131110-16:51:27|117=123|131=1|55=INTEL|133=125|135=10000|132=84|134=10000|60=20131110-16:51:27|64=20131113|10=088|
8=FIX.4.2|9=315|35=S|34=292|49=EXCHANGE_A|56=ISTY_TRADING_SYTEM|52=20131110-16:51:28|117=123|131=1|55=INTEL|133=125|135=10000|132=84|134=10000|60=20131110-16:51:28|64=20131113|10=088|
8=FIX.4.2|9=315|35=S|34=293|49=EXCHANGE_A|56=ISTY_TRADING_SYTEM|52=20131110-16:51:29|117=123|131=1|55=INTEL|133=125|135=10000|132=84|134=10000|60=20131110-16:51:29|64=20131113|10=088|
8=FIX.4.2|9=315|35=S|34=294|49=EXCHANGE_A|56=ISTY_TRADING_SYTEM|52=20131110-16:51:30|117=123|131=1|55=INTEL|133=125|135=10000|132=84|134=10000|60=20131110-16:51:30|64=20131113|10=088|
8=FIX.4.2|9=315|35=S|34=295|49=EXCHANGE_A|56=ISTY_TRADING_SYTEM|52=20131110-16:51:31|117=123|131=1|55=INTEL|133=125|135=10000|132=84|134=10000|60=20131110-16:51:31|64=20131113|10=088|
8=FIX.4.2|9=315|35=S|34=296|49=EXCHANGE_A|56=ISTY_TRADING_SYTEM|52=20131110-16:51:32|117=123|131=1|55=INTEL|133=125|135=10000|132=84|134=10000|60=20131110-16:51:32|64=20131113|10=088|
8=FIX.4.2|9=315|35=S|34=297|49=EXCHANGE_A|56=ISTY_TRADING_SYTEM|52=20131110-16:51:33|117=123|131=1|55=INTEL|133=125|135=10000|132=84|134=10000|60=20131110-16:51:33|64=20131113|10=088|
8=FIX.4.2|9=315|35=S|34=298|49=EXCHANGE_A|56=ISTY_TRADING_SYTEM|52=20131110-16:51:34|117=123|131=1|55=INTEL|133=125|135=10000|132=84|134=10000|60=20131110-16:51:34|64=20131113|10=088|
8=FIX.4.2|9=315|35=S|34=299|49=EXCHANGE_A|56=ISTY_TRADING_SYTEM|52=20131110-16:51:35|117=123|131=1|55=INTEL|133=125|135=10000|132=84|134=10000|60=20131110-16:51:35|64=20131113|10=088|
8=FIX.4.2|9=315|35=S|34=300|49=EXCHANGE_A|56=ISTY_TRADING_SYTEM|52=20131110-16:51:36|117=123|131=1|55=INTEL|133=125|135=10000|132=84|134=10000|60=20131110-16:51:36|64=20131113|10=088|
8=FIX.4.2|9=315|35=S|34=301|49=EXCHANGE_A|56=ISTY_TRADING_SYTEM|52=20131110-16:51:37|117=123|131=1|55=INTEL|133=125|135=10000|132=84|134=10000|60=20131110-16:51:37|64=20131113|10=088|
8=FIX.4.2|9=315|35=S|34=302|49=EXCHANGE_A|56=ISTY_TRADING_SYTEM|52=20131110-16:51:38|117=123|131=1|55=INTEL|133=125|135=10000|132=84|134=10000|60=20131110-16:51:38|64=20131113|10=088|
8=FIX.4.2|9=315|35=S|34=303|49=EXCHANGE_A|56=ISTY_TRADING_SYTEM|52=20131110-16:51:39|117=123|131=1|55=INTEL|133=125|135=10000|132=84|134=10000|60=20131110-16:51:39|64=20131113|10=088|
8=FIX.4.2|9=315|35=S|34=304|49=EXCHANGE_A|56=ISTY_TRADING_SYTEM|52=20131110-16:51:40|117=123|131=1|55=INTEL|133=125|135=10000|132=84|134=10000|60=20131110-16:51:40|64=20131113|10=088|
8=FIX.4.2|9=315|35=S|34=305|49=EXCHANGE_A|56=ISTY_TRADING_SYTEM|52=20131110-16:51:41|117=123|131=1|55=INTEL|133=125|135=10000|132=84|134=10000|60=20131110-16:51:41|64=20131113|10=088|
8=FIX.4.2|9=315|35=S|34=306|49=EXCHANGE_A|56=ISTY_TRADING_SYTEM|52=20131110-16:51:42|117=123|131=1|55=INTEL|133=125|135=10000|132=84|134=10000|60=20131110-16:51:42|64=20131113|10=088|
8=FIX.4.2|9=315|35=S|34=307|49=EXCHANGE_A|56=ISTY_TRADING_SYTEM|52=20131110-16:51:43|117=123|131=1|55=INTEL|133=125|135=10000|132=84|134=10000|60=20131110-16:51:43|64=20131113|10=088|
8=FIX.4.2|9=315|35=S|34=308|49=EXCHANGE_A|56=ISTY_TRADING_SYTEM|52=20131110-16:51:44|117=123|131=1|55=INTEL|133=125|135=10000|132=84|134=10000|60=20131110-16:51:44|64=20131113|10=088|
8=FIX.4.2|9=315|35=S|34=309|49=EXCHANGE_A|56=ISTY_TRADING_SYTEM|52=20131110-16:51:45|117=123|131=1|55=INTEL|133=125|135=10000|132=84|134=10000|60=20131110-16:51:45|64=20131113|10=088|
8=FIX.4.2|9=315|35=S|34=310|49=EXCHANGE_A|56=ISTY_TRADING_SYTEM|52=20131110-16:51:46|117=123|131=1|55=INTEL|133=125|135=10000|132=84|134=10000|60=20131110-16:51:46|64=20131113|10=088|
8=FIX.4.2|9=42|35=0|49=ISTY_TRADING_SYSTEM|56=ECHANGE_A|34=12|52=20131110-16:51:46|10=185|
8=FIX.4.2|9=42|35=0|49=ECHANGE_A|56=ISTY_TRADING_SYSTEM|34=12|52=20131110-16:51:47|10=185|
8=FIX.4.2|9=315|35=S|34=312|49=EXCHANGE_A|56=ISTY_TRADING_SYTEM|52=20131110-16:51:49|117=123|131=1|55=INTEL|133=125|135=10000|132=84|134=10000|60=20131110-16:51:49|64=20131113|10=088|
8=FIX.4.2|9=315|35=S|34=313|49=EXCHANGE_A|56=ISTY_TRADING_SYTEM|52=20131110-16:51:50|117=123|131=1|55=INTEL|133=125|135=10000|132=84|134=10000|60=20131110-16:51:50|64=20131113|10=088|
8=FIX.4.2|9=315|35=S|34=314|49=EXCHANGE_A|56=ISTY_TRADING_SYTEM|52=20131110-16:51:51|117=123|131=1|55=INTEL|133=125|135=10000|132=84|134=10000|60=20131110-16:51:51|64=20131113|10=088|
8=FIX.4.2|9=315|35=S|34=315|49=EXCHANGE_A|56=ISTY_TRADING_SYTEM|52=20131110-16:51:52|117=123|131=1|55=INTEL|133=125|135=10000|132=84|134=10000|60=20131110-16:51:52|64=20131113|10=088|
8=FIX.4.2|9=315|35=S|34=316|49=EXCHANGE_A|56=ISTY_TRADING_SYTEM|52=20131110-16:51:53|117=123|131=1|55=INTEL|133=125|135=10000|132=84|134=10000|60=20131110-16:51:53|64=20131113|10=088|
8=FIX.4.2|9=315|35=S|34=317|49=EXCHANGE_A|56=ISTY_TRADING_SYTEM|52=20131110-16:51:54|117=123|131=1|55=INTEL|133=125|135=10000|132=84|134=10000|60=20131110-16:51:54|64=20131113|10=088|
8=FIX.4.2|9=315|35=S|34=318|49=EXCHANGE_A|56=ISTY_TRADING_SYTEM|52=20131110-16:51:55|117=123|131=1|55=INTEL|133=125|135=10000|132=84|134=10000|60=20131110-16:51:55|64=20131113|10=088|
8=FIX.4.2|9=315|35=S|34=319|49=EXCHANGE_A|56=ISTY_TRADING_SYTEM|52=20131110-16:51:56|117=123|131=1|55=INTEL|133=125|135=10000|132=84|134=10000|60=20131110-16:51:56|64=20131113|10=088|
8=FIX.4.2|9=315|35=S|34=320|49=EXCHANGE_A|56=ISTY_TRADING_SYTEM|52=20131110-16:51:57|117=123|131=1|55=INTEL|133=125|135=10000|132=84|134=10000|60=20131110-16:51:57|64=20131113|10=088|
8=FIX.4.2|9=315|35=S|34=321|49=EXCHANGE_A|56=ISTY_TRADING_SYTEM|52=20131110-16:51:58|117=123|131=1|55=INTEL|133=125|135=10000|132=84|134=10000|60=20131110-16:51:58|64=20131113|10=088|
8=FIX.4.2|9=315|35=S|34=322|49=EXCHANGE_A|56=ISTY_TRADING_SYTEM|52=20131110-16:51:59|117=123|131=1|55=INTEL|133=125|135=10000|132=84|134=10000|60=20131110-16:51:59|64=20131113|10=088|
8=FIX.4.2|9=315|35=S|34=323|49=EXCHANGE_A|56=ISTY_TRADING_SYTEM|52=20131110-16:52:00|117=123|131=1|55=INTEL|133=125|135=10000|132=84|134=10000|60=20131110-16:52:00|64=20131113|10=088|
8=FIX.4.2|9=315|35=S|34=324|49=EXCHANGE_A|56=ISTY_TRADING_SYTEM|52=20131110-16:52:01|117=123|131=1|55=INTEL|133=125|135=10000|132=84|134=10000|60=20131110-16:52:01|64=20131113|10=088|
8=FIX.4.2|9=315|35=S|34=325|49=EXCHANGE_A|56=ISTY_TRADING_SYTEM|52=20131110-16:52:02|117=123|131=1|55=INTEL|133=125|135=10000|132=84|134=10000|60=20131110-16:52:02|64=20131113|10=088|
8=FIX.4.2|9=315|35=S|34=326|49=EXCHANGE_A|56=ISTY_TRADING_SYTEM|52=20131110-16:52:03|117=123|131=1|55=INTEL|133=125|135=10000|132=84|134=10000|60=20131110-16:52:03|64=20131113|10=088|
8=FIX.4.2|9=315|35=S|34=327|49=EXCHANGE_A|56=ISTY_TRADING_SYTEM|52=20131110-16:52:04|117=123|131=1|55=INTEL|133=125|135=10000|132=84|134=10000|60=20131110-16:52:04|64=20131113|10=088|
8=FIX.4.2|9=315|35=S|34=328|49=EXCHANGE_A|56=ISTY_TRADING_SYTEM|52=20131110-16:52:05|117=123|131=1|55=INTEL|133=125|135=10000|132=84|134=10000|60=20131110-16:52:05|64=20131113|10=088|
8=FIX.4.2|9=315|35=S|34=329|49=EXCHANGE_A|56=ISTY_TRADING_SYTEM|52=20131110-16:52:06|117=123|131=1|55=INTEL|133=125|135=10000|132=84|134=10000|60=20131110-16:52:06|64=20131113|10=088|
8=FIX.4.2|9=315|35=S|34=330|49=EXCHANGE_A|56=ISTY_TRADING_SYTEM|52=20131110-16:52:07|117=123|131=1|55=INTEL|133=125|135=10000|132=84|134=10000|60=20131110-16:52:07|64=20131113|10=088|
8=FIX.4.2|9=315|35=S|34=331|49=EXCHANGE_A|56=ISTY_TRADING_SYTEM|52=20131110-16:52:08|117=123|131=1|55=INTEL|133=125|135=10000|132=84|134=10000|60=20131110-16:52:08|64=20131113|10=088|
8=FIX.4.2|9=315|35=S|34=332|49=EXCHANGE_A|56=ISTY_TRADING_SYTEM|52=20131110-16:52:09|117=123|131=1|55=INTEL|133=125|135=10000|132=84|134=10000|60=20131110-16:52:09|64=20131113|10=088|
8=FIX.4.2|9=315|35=S|34=333|49=EXCHANGE_A|56=ISTY_TRADING_SYTEM|52=20131110-16:52:10|117=123|131=1|55=INTEL|133=125|135=10000|132=84|134=10000|60=20131110-16:52:10|64=20131113|10=088|
8=FIX.4.2|9=315|35=S|34=334|49=EXCHANGE_A|56=ISTY_TRADING_SYTEM|52=20131110-16:52:11|117=123|131=1|55=INTEL|133=125|135=10000|132=84|134=10000|60=20131110-16:52:11|64=20131113|10=088|
8=FIX.4.2|9=315|35=S|34=335|49=EXCHANGE_A|56=ISTY_TRADING_SYTEM|52=20131110-16:52:12|117=123|131=1|55=INTEL|133=125|135=10000|132=84|134=10000|60=20131110-16:52:12|64=20131113|10=088|
8=FIX.4.2|9=315|35=S|34=336|49=EXCHANGE_A|56=ISTY_TRADING_SYTEM|52=20131110-16:52:13|117=123|131=1|55=INTEL|133=125|135=10000|132=84|134=10000|60=20131110-16:52:13|64=20131113|10=088|
8=FIX.4.2|9=315|35=S|34=337|49=EXCHANGE_A|56=ISTY_TRADING_SYTEM|52=20131110-16:52:14|117=123|131=1|55=INTEL|133=125|135=10000|132=84|134=10000|60=20131110-16:52:14|64=20131113|10=088|
8=FIX.4.2|9=315|35=S|34=338|49=EXCHANGE_A|56=ISTY_TRADING_SYTEM|52=20131110-16:52:15|117=123|131=1|55=INTEL|133=125|135=10000|132=84|134=10000|60=20131110-16:52:15|64=20131113|10=088|
8=FIX.4.2|9=42|35=0|49=ISTY_TRADING_SYSTEM|56=ECHANGE_A|34=12|52=20131110-16:52:15|10=185|
8=FIX.4.2|9=42|35=0|49=ECHANGE_A|56=ISTY_TRADING_SYSTEM|34=12|52=20131110-16:52:16|10=185|
8=FIX.4.2|9=315|35=S|34=340|49=EXCHANGE_A|56=ISTY_TRADING_SYTEM|52=20131110-16:52:18|117=123|131=1|55=INTEL|133=125|135=10000|132=84|134=10000|60=20131110-16:52:18|64=20131113|10=088|
8=FIX.4.2|9=315|35=S|34=341|49=EXCHANGE_A|56=ISTY_TRADING_SYTEM|52=20131110-16:52:19|117=123|131=1|55=INTEL|133=125|135=10000|132=84|134=10000|60=20131110-16:52:19|64=20131113|10=088|
8=FIX.4.2|9=315|35=S|34=342|49=EXCHANGE_A|56=ISTY_TRADING_SYTEM|52=20131110-16:52:20|117=123|131=1|55=INTEL|133=125|135=10000|132=84|134=10000|60=20131110-16:52:20|64=20131113|10=088|
8=FIX.4.2|9=315|35=S|34=343|49=EXCHANGE_A|56=ISTY_TRADING_SYTEM|52=20131110-16:52:21|117=123|131=1|55=INTEL|133=125|135=10000|132=84|134=10000|60=20131110-16:52:21|64=20131113|10=088|
8=FIX.4.2|9=315|35=S|34=344|49=EXCHANGE_A|56=ISTY_TRADING_SYTEM|52=20131110-16:52:22|117=123|131=1|55=INTEL|133=125|135=10000|132=84|134=10000|60=20131110-16:52:22|64=20131113|10=088|
8=FIX.4.2|9=315|35=S|34=345|49=EXCHANGE_A|56=ISTY_TRADING_SYTEM|52=20131110-16:52:23|117=123|131=1|55=INTEL|133=125|135=10000|132=84|134=10000|60=20131110-16:52:23|64=20131113|10=088|
8=FIX.4.2|9=315|35=S|34=346|49=EXCHANGE_A|56=ISTY_TRADING_SYTEM|52=20131110-16:52:24|117=123|131=1|55=INTEL|133=125|135=10000|132=84|134=10000|60=20131110-16:52:24|64=20131113|10=088|
8=FIX.4.2|9=315|35=S|34=347|49=EXCHANGE_A|56=ISTY_TRADING_SYTEM|52=20131110-16:52:25|117=123|131=1|55=INTEL|133=125|135=10000|132=84|134=10000|60=20131110-16:52:25|64=20131113|10=088|
8=FIX.4.2|9=315|35=S|34=348|49=EXCHANGE_A|56=ISTY_TRADING_SYTEM|52=20131110-16:52:26|117=123|131=1|55=INTEL|133=125|135=10000|132=84|134=10000|60=20131110-16:52:26|64=20131113|10=088|
8=FIX.4.2|9=315|35=S|34=349|49=EXCHANGE_A|56=ISTY_TRADING_SYTEM|52=20131110-16:52:27|117=123|131=1|55=INTEL|133=125|135=10000|132=84|134=10000|60=20131110-16:52:27|64=20131113|10=088|
8=FIX.4.2|9=315|35=S|34=350|49=EXCHANGE_A|56=ISTY_TRADING_SYTEM|52=20131110-16:52:28|117=123|131=1|55=INTEL|133=125|135=10000|132=84|134=10000|60=20131110-16:52:28|64=20131113|10=088|
8=FIX.4.2|9=315|35=S|34=351|49=EXCHANGE_A|56=ISTY_TRADING_SYTEM|52=20131110-16:52:29|117=123|131=1|55=INTEL|133=125|135=10000|132=84|134=10000|60=20131110-16:52:29|64=20131113|10=088|
8=FIX.4.2|9=315|35=S|34=352|49=EXCHANGE_A|56=ISTY_TRADING_SYTEM|52=20131110-16:52:30|117=123|131=1|55=INTEL|133=125|135=10000|132=84|134=10000|60=20131110-16:52:30|64=20131113|10=088|
8=FIX.4.2|9=315|35=S|34=353|49=EXCHANGE_A|56=ISTY_TRADING_SYTEM|52=20131110-16:52:31|117=123|131=1|55=INTEL|133=125|135=10000|132=84|134=10000|60=20131110-16:52:31|64=20131113|10=088|
8=FIX.4.2|9=315|35=S|34=354|49=EXCHANGE_A|56=ISTY_TRADING_SYTEM|52=20131110-16:52:32|117=123|131=1|55=INTEL|133=125|135=10000|132=84|134=10000|60=20131110-16:52:32|64=20131113|10=088|
8=FIX.4.2|9=315|35=S|34=355|49=EXCHANGE_A|56=ISTY_TRADING_SYTEM|52=20131110-16:52:33|117=123|131=1|55=INTEL|133=125|135=10000|132=84|134=10000|60=20131110-16:52:33|64=20131113|10=088|
8=FIX.4.2|9=315|35=S|34=356|49=EXCHANGE_A|56=ISTY_TRADING_SYTEM|52=20131110-16:52:34|117=123|131=1|55=INTEL|133=125|135=10000|132=84|134=10000|60=20131110-16:52:34|64=20131113|10=088|
8=FIX.4.2|9=315|35=S|34=357|49=EXCHANGE_A|56=ISTY_TRADING_SYTEM|52=20131110-16:52:35|117=123|131=1|55=INTEL|133=125|135=10000|132=84|134=10000|60=20131110-16:52:35|64=20131113|10=088|
8=FIX.4.2|9=315|35=S|34=358|49=EXCHANGE_A|56=ISTY_TRADING_SYTEM|52=20131110-16:52:36|117=123|131=1|55=INTEL|133=125|135=10000|132=84|134=10000|60=20131110-16:52:36|64=20131113|10=088|
8=FIX.4.2|9=315|35=S|34=359|49=EXCHANGE_A|56=ISTY_TRADING_SYTEM|52=20131110-16:52:37|117=123|131=1|55=INTEL|133=125|135=10000|132=84|134=10000|60=20131110-16:52:37|64=20131113|10=088|
8=FIX.4.2|9=315|35=S|34=360|49=EXCHANGE_A|56=ISTY_TRADING_SYTEM|52=20131110-16:52:38|117=123|131=1|55=INTEL|133=125|135=10000|132=84|134=10000|60=20131110-16:52:38|64=20131113|10=088|
8=FIX.4.2|9=315|35=S|34=361|49=EXCHANGE_A|56=ISTY_TRADING_SYTEM|52=20131110-16:52:39|117=123|131=1|55=INTEL|133=125|135=10000|132=84|134=10000|60=20131110-16:52:39|64=20131113|10=088|
8=FIX.4.2|9=315|35=S|34=362|49=EXCHANGE_A|56=ISTY_TRADING_SYTEM|52=20131110-16:52:40|117=123|131=1|55=INTEL|133=125|135=10000|132=84|134=10000|60=20131110-16:52:40|64=20131113|10=088|
8=FIX.4.2|9=315|35=S|34=363|49=EXCHANGE_A|56=ISTY_TRADING_SYTEM|52=20131110-16:52:41|117=123|131=1|55=INTEL|133=125|135=10000|132=84|134=10000|60=20131110-16:52:41|64=20131113|10=088|
8=FIX.4.2|9=315|35=S|34=364|49=EXCHANGE_A|56=ISTY_TRADING_SYTEM|52=20131110-16:52:42|117=123|131=1|55=INTEL|133=125|135=10000|132=84|134=10000|60=20131110-16:52:42|64=20131113|10=088|
8=FIX.4.2|9=315|35=S|34=365|49=EXCHANGE_A|56=ISTY_TRADING_SYTEM|52=20131110-16:52:43|117=123|131=1|55=INTEL|133=125|135=10000|132=84|134=10000|60=20131110-16:52:43|64=20131113|10=088|
8=FIX.4.2|9=315|35=S|34=366|49=EXCHANGE_A|56=ISTY_TRADING_SYTEM|52=20131110-16:52:44|117=123|131=1|55=INTEL|133=125|135=10000|132=84|134=10000|60=20131110-16:52:44|64=20131113|10=088|
8=FIX.4.2|9=42|35=0|49=ISTY_TRADING_SYSTEM|56=ECHANGE_A|34=12|52=20131110-16:52:44|10=185|
8=FIX.4.2|9=42|35=0|49=ECHANGE_A|56=ISTY_TRADING_SYSTEM|34=12|52=20131110-16:52:45|10=185|
8=FIX.4.2|9=315|35=S|34=368|49=EXCHANGE_A|56=ISTY_TRADING_SYTEM|52=20131110-16:52:47|117=123|131=1|55=INTEL|133=125|135=10000|132=84|134=10000|60=20131110-16:52:47|64=20131113|10=088|
8=FIX.4.2|9=315|35=S|34=369|49=EXCHANGE_A|56=ISTY_TRADING_SYTEM|52=20131110-16:52:48|117=123|131=1|55=INTEL|133=125|135=10000|132=84|134=10000|60=20131110-16:52:48|64=20131113|10=088|
8=FIX.4.2|9=315|35=S|34=370|49=EXCHANGE_A|56=ISTY_TRADING_SYTEM|52=20131110-16:52:49|117=123|131=1|55=INTEL|133=125|135=10000|132=84|134=10000|60=20131110-16:52:49|64=20131113|10=088|
8=FIX.4.2|9=315|35=S|34=371|49=EXCHANGE_A|56=ISTY_TRADING_SYTEM|52=20131110-16:52:50|117=123|131=1|55=INTEL|133=125|135=10000|132=84|134=10000|60=20131110-16:52:50|64=20131113|10=088|
8=FIX.4.2|9=315|35=S|34=372|49=EXCHANGE_A|56=ISTY_TRADING_SYTEM|52=20131110-16:52:51|117=123|131=1|55=INTEL|133=125|135=10000|132=84|134=10000|60=20131110-16:52:51|64=20131113|10=088|
8=FIX.4.2|9=315|35=S|34=373|49=EXCHANGE_A|56=ISTY_TRADING_SYTEM|52=20131110-16:52:52|117=123|131=1|55=INTEL|133=125|135=10000|132=84|134=10000|60=20131110-16:52:52|64=20131113|10=088|
8=FIX.4.2|9=315|35=S|34=374|49=EXCHANGE_A|56=ISTY_TRADING_SYTEM|52=20131110-16:52:53|117=123|131=1|55=INTEL|133=125|135=10000|132=84|134=10000|60=20131110-16:52:53|64=20131113|10=088|
8=FIX.4.2|9=315|35=S|34=375|49=EXCHANGE_A|56=ISTY_TRADING_SYTEM|52=20131110-16:52:54|117=123|131=1|55=INTEL|133=125|135=10000|132=84|134=10000|60=20131110-16:52:54|64=20131113|10=088|
8=FIX.4.2|9=315|35=S|34=376|49=EXCHANGE_A|56=ISTY_TRADING_SYTEM|52=20131110-16:52:55|117=123|131=1|55=INTEL|133=125|135=10000|132=84|134=10000|60=20131110-16:52:55|64=20131113|10=088|
8=FIX.4.2|9=315|35=S|34=377|49=EXCHANGE_A|56=ISTY_TRADING_SYTEM|52=20131110-16:52:56|117=123|131=1|55=INTEL|133=125|135=10000|132=84|134=10000|60=20131110-16:52:56|64=20131113|10=088|
8=FIX.4.2|9=315|35=S|34=378|49=EXCHANGE_A|56=ISTY_TRADING_SYTEM|52=20131110-16:52:57|117=123|131=1|55=INTEL|133=125|135=10000|132=84|134=10000|60=20131110-16:52:57|64=20131113|10=088|
8=FIX.4.2|9=315|35=S|34=379|49=EXCHANGE_A|56=ISTY_TRADING_SYTEM|52=20131110-16:52:58|117=123|131=1|55=INTEL|133=125|135=10000|132=84|134=10000|60=20131110-16:52:58|64=20131113|10=088|
8=FIX.4.2|9=315|35=S|34=380|49=EXCHANGE_A|56=ISTY_TRADING_SYTEM|52=20131110-16:52:59|117=123|131=1|55=INTEL|133=125|135=10000|132=84|134=10000|60=20131110-16:52:59|64=20131113|10=088|
8=FIX.4.2|9=315|35=S|34=381|49=EXCHANGE_A|56=ISTY_TRADING_SYTEM|52=20131110-16:53:00|117=123|131=1|55=INTEL|133=125|135=10000|132=84|134=10000|60=20131110-16:53:00|64=20131113|10=088|
8=FIX.4.2|9=315|35=S|34=382|49=EXCHANGE_A|56=ISTY_TRADING_SYTEM|52=20131110-16:53:01|117=123|131=1|55=INTEL|133=125|135=10000|132=84|134=10000|60=20131110-16:53:01|64=20131113|10=088|
8=FIX.4.2|9=315|35=S|34=383|49=EXCHANGE_A|56=ISTY_TRADING_SYTEM|52=20131110-16:53:02|117=123|131=1|55=INTEL|133=125|135=10000|132=84|134=10000|60=20131110-16:53:02|64=20131113|10=088|
8=FIX.4.2|9=315|35=S|34=384|49=EXCHANGE_A|56=ISTY_TRADING_SYTEM|52=20131110-16:53:03|117=123|131=1|55=INTEL|133=125|135=10000|132=84|134=10000|60=20131110-16:53:03|64=20131113|10=088|
8=FIX.4.2|9=315|35=S|34=385|49=EXCHANGE_A|56=ISTY_TRADING_SYTEM|52=20131110-16:53:04|117=123|131=1|55=INTEL|133=125|135=10000|132=84|134=10000|60=20131110-16:53:04|64=20131113|10=088|
8=FIX.4.2|9=315|35=S|34=386|49=EXCHANGE_A|56=ISTY_TRADING_SYTEM|52=20131110-16:53:05|117=123|131=1|55=INTEL|133=125|135=10000|132=84|134=10000|60=20131110-16:53:05|64=20131113|10=088|
8=FIX.4.2|9=315|35=S|34=387|49=EXCHANGE_A|56=ISTY_TRADING_SYTEM|52=20131110-16:53:06|117=123|131=1|55=INTEL|133=125|135=10000|132=84|134=10000|60=20131110-16:53:06|64=20131113|10=088|
8=FIX.4.2|9=315|35=S|34=388|49=EXCHANGE_A|56=ISTY_TRADING_SYTEM|52=20131110-16:53:07|117=123|131=1|55=INTEL|133=125|135=10000|132=84|134=10000|60=20131110-16:53:07|64=20131113|10=088|
8=FIX.4.2|9=315|35=S|34=389|49=EXCHANGE_A|56=ISTY_TRADING_SYTEM|52=20131110-16:53:08|117=123|131=1|55=INTEL|133=125|135=10000|132=84|134=10000|60=20131110-16:53:08|64=20131113|10=088|
8=FIX.4.2|9=315|35=S|34=390|49=EXCHANGE_A|56=ISTY_TRADING_SYTEM|52=20131110-16:53:09|117=123|131=1|55=INTEL|133=125|135=10000|132=84|134=10000|60=20131110-16:53:09|64=20131113|10=088|
8=FIX.4.2|9=315|35=S|34=391|49=EXCHANGE_A|56=ISTY_TRADING_SYTEM|52=20131110-16:53:10|117=123|131=1|55=INTEL|133=125|135=10000|132=84|134=10000|60=20131110-16:53:10|64=20131113|10=088|
8=FIX.4.2|9=315|35=S|34=392|49=EXCHANGE_A|56=ISTY_TRADING_SYTEM|52=20131110-16:53:11|117=123|131=1|55=INTEL|133=125|135=10000|132=84|134=10000|60=20131110-16:53:11|64=20131113|10=088|
8=FIX.4.2|9=315|35=S|34=393|49=EXCHANGE_A|56=ISTY_TRADING_SYTEM|52=20131110-16:53:12|117=123|131=1|55=INTEL|133=125|135=10000|132=84|134=10000|60=20131110-16:53:12|64=20131113|10=088|
8=FIX.4.2|9=315|35=S|34=394|49=EXCHANGE_A|56=ISTY_TRADING_SYTEM|52=20131110-16:53:13|117=123|131=1|55=INTEL|133=125|135=10000|132=84|134=10000|60=20131110-16:53:13|64=20131113|10=088|
8=FIX.4.2|9=42|35=0|49=ISTY_TRADING_SYSTEM|56=ECHANGE_A|34=12|52=20131110-16:53:13|10=185|
8=FIX.4.2|9=42|35=0|49=ECHANGE_A|56=ISTY_TRADING_SYSTEM|34=12|52=20131110-16:53:14|10=185|
8=FIX.4.2|9=315|35=S|34=396|49=EXCHANGE_A|56=ISTY_TRADING_SYTEM|52=20131110-16:53:16|117=123|131=1|55=INTEL|133=125|135=10000|132=84|134=10000|60=20131110-16:53:16|64=20131113|10=088|
8=FIX.4.2|9=315|35=S|34=397|49=EXCHANGE_A|56=ISTY_TRADING_SYTEM|52=20131110-16:53:17|117=123|131=1|55=INTEL|133=125|135=10000|132=84|134=10000|60=20131110-16:53:17|64=20131113|10=088|
8=FIX.4.2|9=315|35=S|34=398|49=EXCHANGE_A|56=ISTY_TRADING_SYTEM|52=20131110-16:53:18|117=123|131=1|55=INTEL|133=125|135=10000|132=84|134=10000|60=20131110-16:53:18|64=20131113|10=088|
8=FIX.4.2|9=315|35=S|34=399|49=EXCHANGE_A|56=ISTY_TRADING_SYTEM|52=20131110-16:53:19|117=123|131=1|55=INTEL|133=125|135=10000|132=84|134=10000|60=20131110-16:53:19|64=20131113|10=088|
8=FIX.4.2|9=315|35=S|34=400|49=EXCHANGE_A|56=ISTY_TRADING_SYTEM|52=20131110-16:53:20|117=123|131=1|55=INTEL|133=125|135=10000|132=84|134=10000|60=20131110-16:53:20|64=20131113|10=088|
8=FIX.4.2|9=315|35=S|34=401|49=EXCHANGE_A|56=ISTY_TRADING_SYTEM|52=20131110-16:53:21|117=123|131=1|55=INTEL|133=125|135=10000|132=84|134=10000|60=20131110-16:53:21|64=20131113|10=088|
8=FIX.4.2|9=315|35=S|34=402|49=EXCHANGE_A|56=ISTY_TRADING_SYTEM|52=20131110-16:53:22|117=123|131=1|55=INTEL|133=125|135=10000|132=84|134=10000|60=20131110-16:53:22|64=20131113|10=088|
8=FIX.4.2|9=315|35=S|34=403|49=EXCHANGE_A|56=ISTY_TRADING_SYTEM|52=20131110-16:53:23|117=123|131=1|55=INTEL|133=125|135=10000|132=84|134=10000|60=20131110-16:53:23|64=20131113|10=088|
8=FIX.4.2|9=315|35=S|34=404|49=EXCHANGE_A|56=ISTY_TRADING_SYTEM|52=20131110-16:53:24|117=123|131=1|55=INTEL|133=125|135=10000|132=84|134=10000|60=20131110-16:53:24|64=20131113|10=088|
8=FIX.4.2|9=315|35=S|34=405|49=EXCHANGE_A|56=ISTY_TRADING_SYTEM|52=20131110-16:53:25|117=123|131=1|55=INTEL|133=125|135=10000|132=84|134=10000|60=20131110-16:53:25|64=20131113|10=088|
8=FIX.4.2|9=315|35=S|34=406|49=EXCHANGE_A|56=ISTY_TRADING_SYTEM|52=20131110-16:53:26|117=123|131=1|55=INTEL|133=125|135=10000|132=84|134=10000|60=20131110-16:53:26|64=20131113|10=088|
8=FIX.4.2|9=315|35=S|34=407|49=EXCHANGE_A|56=ISTY_TRADING_SYTEM|52=20131110-16:53:27|117=123|131=1|55=INTEL|133=125|135=10000|132=84|134=10000|60=20131110-16:53:27|64=20131113|10=088|
8=FIX.4.2|9=315|35=S|34=408|49=EXCHANGE_A|56=ISTY_TRADING_SYTEM|52=20131110-16:53:28|117=123|131=1|55=INTEL|133=125|135=10000|132=84|134=10000|60=20131110-16:53:28|64=20131113|10=088|
8=FIX.4.2|9=315|35=S|34=409|49=EXCHANGE_A|56=ISTY_TRADING_SYTEM|52=20131110-16:53:29|117=123|131=1|55=INTEL|133=125|135=10000|132=84|134=10000|60=20131110-16:53:29|64=20131113|10=088|
8=FIX.4.2|9=315|35=S|34=410|49=EXCHANGE_A|56=ISTY_TRADING_SYTEM|52=20131110-16:53:30|117=123|131=1|55=INTEL|133=125|135=10000|132=84|134=10000|60=20131110-16:53:30|64=20131113|10=088|
8=FIX.4.2|9=315|35=S|34=411|49=EXCHANGE_A|56=ISTY_TRADING_SYTEM|52=20131110-16:53:31|117=123|131=1|55=INTEL|133=125|135=10000|132=84|134=10000|60=20131110-16:53:31|64=20131113|10=088|
8=FIX.4.2|9=315|35=S|34=412|49=EXCHANGE_A|56=ISTY_TRADING_SYTEM|52=20131110-16:53:32|117=123|131=1|55=INTEL|133=125|135=10000|132=84|134=10000|60=20131110-16:53:32|64=20131113|10=088|
8=FIX.4.2|9=315|35=S|34=413|49=EXCHANGE_A|56=ISTY_TRADING_SYTEM|52=20131110-16:53:33|117=123|131=1|55=INTEL|133=125|135=10000|132=84|134=10000|60=20131110-16:53:33|64=20131113|10=088|
8=FIX.4.2|9=315|35=S|34=414|49=EXCHANGE_A|56=ISTY_TRADING_SYTEM|52=20131110-16:53:34|117=123|131=1|55=INTEL|133=125|135=10000|132=84|134=10000|60=20131110-16:53:34|64=20131113|10=088|
8=FIX.4.2|9=315|35=S|34=415|49=EXCHANGE_A|56=ISTY_TRADING_SYTEM|52=20131110-16:53:35|117=123|131=1|55=INTEL|133=125|135=10000|132=84|134=10000|60=20131110-16:53:35|64=20131113|10=088|
8=FIX.4.2|9=315|35=S|34=416|49=EXCHANGE_A|56=ISTY_TRADING_SYTEM|52=20131110-16:53:36|117=123|131=1|55=INTEL|133=125|135=10000|132=84|134=10000|60=20131110-16:53:36|64=20131113|10=088|
8=FIX.4.2|9=315|35=S|34=417|49=EXCHANGE_A|56=ISTY_TRADING_SYTEM|52=20131110-16:53:37|117=123|131=1|55=INTEL|133=125|135=10000|132=84|134=10000|60=20131110-16:53:37|64=20131113|10=088|
8=FIX.4.2|9=315|35=S|34=418|49=EXCHANGE_A|56=ISTY_TRADING_SYTEM|52=20131110-16:53:38|117=123|131=1|55=INTEL|133=125|135=10000|132=84|134=10000|60=20131110-16:53:38|64=20131113|10=088|
8=FIX.4.2|9=315|35=S|34=419|49=EXCHANGE_A|56=ISTY_TRADING_SYTEM|52=20131110-16:53:39|117=123|131=1|55=INTEL|133=125|135=10000|132=84|134=10000|60=20131110-16:53:39|64=20131113|10=088|
8=FIX.4.2|9=315|35=S|34=420|49=EXCHANGE_A|56=ISTY_TRADING_SYTEM|52=20131110-16:53:40|117=123|131=1|55=INTEL|133=125|135=10000|132=84|134=10000|60=20131110-16:53:40|64=20131113|10=088|
8=FIX.4.2|9=315|35=S|34=421|49=EXCHANGE_A|56=ISTY_TRADING_SYTEM|52=20131110-16:53:41|117=123|131=1|55=INTEL|133=125|135=10000|132=84|134=10000|60=20131110-16:53:41|64=20131113|10=088|
8=FIX.4.2|9=315|35=S|34=422|49=EXCHANGE_A|56=ISTY_TRADING_SYTEM|52=20131110-16:53:42|117=123|131=1|55=INTEL|133=125|135=10000|132=84|134=10000|60=20131110-16:53:42|64=20131113|10=088|
